{
  "_format": "hh-sol-artifact-1",
  "contractName": "Marketplace",
  "sourceName": "contracts/Marketplace.sol",
  "abi": [
    {
      "inputs": [
        {
          "internalType": "address",
          "name": "_ufoToken",
          "type": "address"
        },
        {
          "internalType": "address",
          "name": "_shipNFT",
          "type": "address"
        },
        {
          "internalType": "address",
          "name": "_stationNFT",
          "type": "address"
        }
      ],
      "stateMutability": "nonpayable",
      "type": "constructor"
    },
    {
      "anonymous": false,
      "inputs": [
        {
          "indexed": true,
          "internalType": "address",
          "name": "seller",
          "type": "address"
        },
        {
          "indexed": true,
          "internalType": "uint256",
          "name": "listingId",
          "type": "uint256"
        }
      ],
      "name": "Cancelled",
      "type": "event"
    },
    {
      "anonymous": false,
      "inputs": [
        {
          "indexed": true,
          "internalType": "address",
          "name": "seller",
          "type": "address"
        },
        {
          "indexed": true,
          "internalType": "uint256",
          "name": "listingId",
          "type": "uint256"
        },
        {
          "indexed": false,
          "internalType": "enum Marketplace.ListingType",
          "name": "listingType",
          "type": "uint8"
        },
        {
          "indexed": true,
          "internalType": "uint256",
          "name": "tokenId",
          "type": "uint256"
        },
        {
          "indexed": false,
          "internalType": "uint256",
          "name": "price",
          "type": "uint256"
        }
      ],
      "name": "Listed",
      "type": "event"
    },
    {
      "anonymous": false,
      "inputs": [
        {
          "indexed": true,
          "internalType": "address",
          "name": "previousOwner",
          "type": "address"
        },
        {
          "indexed": true,
          "internalType": "address",
          "name": "newOwner",
          "type": "address"
        }
      ],
      "name": "OwnershipTransferred",
      "type": "event"
    },
    {
      "anonymous": false,
      "inputs": [
        {
          "indexed": true,
          "internalType": "address",
          "name": "seller",
          "type": "address"
        },
        {
          "indexed": true,
          "internalType": "address",
          "name": "buyer",
          "type": "address"
        },
        {
          "indexed": true,
          "internalType": "uint256",
          "name": "listingId",
          "type": "uint256"
        },
        {
          "indexed": false,
          "internalType": "enum Marketplace.ListingType",
          "name": "listingType",
          "type": "uint8"
        },
        {
          "indexed": false,
          "internalType": "uint256",
          "name": "tokenId",
          "type": "uint256"
        },
        {
          "indexed": false,
          "internalType": "uint256",
          "name": "price",
          "type": "uint256"
        }
      ],
      "name": "Sold",
      "type": "event"
    },
    {
      "inputs": [
        {
          "internalType": "uint256",
          "name": "listingId",
          "type": "uint256"
        }
      ],
      "name": "buy",
      "outputs": [],
      "stateMutability": "nonpayable",
      "type": "function"
    },
    {
      "inputs": [
        {
          "internalType": "uint256",
          "name": "listingId",
          "type": "uint256"
        }
      ],
      "name": "cancelListing",
      "outputs": [],
      "stateMutability": "nonpayable",
      "type": "function"
    },
    {
      "inputs": [],
      "name": "getActiveListings",
      "outputs": [
        {
          "components": [
            {
              "internalType": "address",
              "name": "seller",
              "type": "address"
            },
            {
              "internalType": "enum Marketplace.ListingType",
              "name": "listingType",
              "type": "uint8"
            },
            {
              "internalType": "uint256",
              "name": "tokenId",
              "type": "uint256"
            },
            {
              "internalType": "uint256",
              "name": "price",
              "type": "uint256"
            },
            {
              "internalType": "enum Marketplace.ListingStatus",
              "name": "status",
              "type": "uint8"
            }
          ],
          "internalType": "struct Marketplace.Listing[]",
          "name": "",
          "type": "tuple[]"
        }
      ],
      "stateMutability": "view",
      "type": "function"
    },
    {
      "inputs": [
        {
          "internalType": "uint256",
          "name": "listingId",
          "type": "uint256"
        }
      ],
      "name": "getListing",
      "outputs": [
        {
          "components": [
            {
              "internalType": "address",
              "name": "seller",
              "type": "address"
            },
            {
              "internalType": "enum Marketplace.ListingType",
              "name": "listingType",
              "type": "uint8"
            },
            {
              "internalType": "uint256",
              "name": "tokenId",
              "type": "uint256"
            },
            {
              "internalType": "uint256",
              "name": "price",
              "type": "uint256"
            },
            {
              "internalType": "enum Marketplace.ListingStatus",
              "name": "status",
              "type": "uint8"
            }
          ],
          "internalType": "struct Marketplace.Listing",
          "name": "",
          "type": "tuple"
        }
      ],
      "stateMutability": "view",
      "type": "function"
    },
    {
      "inputs": [
        {
          "internalType": "address",
          "name": "user",
          "type": "address"
        }
      ],
      "name": "getUserListings",
      "outputs": [
        {
          "components": [
            {
              "internalType": "address",
              "name": "seller",
              "type": "address"
            },
            {
              "internalType": "enum Marketplace.ListingType",
              "name": "listingType",
              "type": "uint8"
            },
            {
              "internalType": "uint256",
              "name": "tokenId",
              "type": "uint256"
            },
            {
              "internalType": "uint256",
              "name": "price",
              "type": "uint256"
            },
            {
              "internalType": "enum Marketplace.ListingStatus",
              "name": "status",
              "type": "uint8"
            }
          ],
          "internalType": "struct Marketplace.Listing[]",
          "name": "",
          "type": "tuple[]"
        }
      ],
      "stateMutability": "view",
      "type": "function"
    },
    {
      "inputs": [
        {
          "internalType": "uint256",
          "name": "tokenId",
          "type": "uint256"
        },
        {
          "internalType": "uint256",
          "name": "price",
          "type": "uint256"
        }
      ],
      "name": "listShip",
      "outputs": [],
      "stateMutability": "nonpayable",
      "type": "function"
    },
    {
      "inputs": [
        {
          "internalType": "uint256",
          "name": "tokenId",
          "type": "uint256"
        },
        {
          "internalType": "uint256",
          "name": "price",
          "type": "uint256"
        }
      ],
      "name": "listStation",
      "outputs": [],
      "stateMutability": "nonpayable",
      "type": "function"
    },
    {
      "inputs": [],
      "name": "listingCount",
      "outputs": [
        {
          "internalType": "uint256",
          "name": "",
          "type": "uint256"
        }
      ],
      "stateMutability": "view",
      "type": "function"
    },
    {
      "inputs": [
        {
          "internalType": "uint256",
          "name": "",
          "type": "uint256"
        }
      ],
      "name": "listings",
      "outputs": [
        {
          "internalType": "address",
          "name": "seller",
          "type": "address"
        },
        {
          "internalType": "enum Marketplace.ListingType",
          "name": "listingType",
          "type": "uint8"
        },
        {
          "internalType": "uint256",
          "name": "tokenId",
          "type": "uint256"
        },
        {
          "internalType": "uint256",
          "name": "price",
          "type": "uint256"
        },
        {
          "internalType": "enum Marketplace.ListingStatus",
          "name": "status",
          "type": "uint8"
        }
      ],
      "stateMutability": "view",
      "type": "function"
    },
    {
      "inputs": [],
      "name": "owner",
      "outputs": [
        {
          "internalType": "address",
          "name": "",
          "type": "address"
        }
      ],
      "stateMutability": "view",
      "type": "function"
    },
    {
      "inputs": [],
      "name": "renounceOwnership",
      "outputs": [],
      "stateMutability": "nonpayable",
      "type": "function"
    },
    {
      "inputs": [
        {
          "internalType": "uint256",
          "name": "amount",
          "type": "uint256"
        }
      ],
      "name": "rescueETH",
      "outputs": [],
      "stateMutability": "nonpayable",
      "type": "function"
    },
    {
      "inputs": [
        {
          "internalType": "address",
          "name": "tokenAddress",
          "type": "address"
        },
        {
          "internalType": "uint256",
          "name": "amount",
          "type": "uint256"
        }
      ],
      "name": "rescueTokens",
      "outputs": [],
      "stateMutability": "nonpayable",
      "type": "function"
    },
    {
      "inputs": [],
      "name": "shipNFT",
      "outputs": [
        {
          "internalType": "contract ShipNFT",
          "name": "",
          "type": "address"
        }
      ],
      "stateMutability": "view",
      "type": "function"
    },
    {
      "inputs": [],
      "name": "stationNFT",
      "outputs": [
        {
          "internalType": "contract StationNFT",
          "name": "",
          "type": "address"
        }
      ],
      "stateMutability": "view",
      "type": "function"
    },
    {
      "inputs": [
        {
          "internalType": "address",
          "name": "newOwner",
          "type": "address"
        }
      ],
      "name": "transferOwnership",
      "outputs": [],
      "stateMutability": "nonpayable",
      "type": "function"
    },
    {
      "inputs": [],
      "name": "ufoToken",
      "outputs": [
        {
          "internalType": "contract AbstractorsToken",
          "name": "",
          "type": "address"
        }
      ],
      "stateMutability": "view",
      "type": "function"
    },
    {
      "inputs": [
        {
          "internalType": "address",
          "name": "",
          "type": "address"
        },
        {
          "internalType": "uint256",
          "name": "",
          "type": "uint256"
        }
      ],
      "name": "userListings",
      "outputs": [
        {
          "internalType": "uint256",
          "name": "",
          "type": "uint256"
        }
      ],
      "stateMutability": "view",
      "type": "function"
    }
  ],
  "bytecode": "0x60806040523480156200001157600080fd5b5060405162001bc038038062001bc08339810160408190526200003491620000f6565b6001600055620000443362000087565b600280546001600160a01b039485166001600160a01b03199182161790915560038054938516938216939093179092556004805491909316911617905562000140565b600180546001600160a01b038381166001600160a01b0319831681179093556040519116919082907f8be0079c531659141344cd1fd0a4f28419497f9722a3daafe3b4186f6b6457e090600090a35050565b80516001600160a01b0381168114620000f157600080fd5b919050565b6000806000606084860312156200010c57600080fd5b6200011784620000d9565b92506200012760208501620000d9565b91506200013760408501620000d9565b90509250925092565b611a7080620001506000396000f3fe608060405234801561001057600080fd5b50600436106101165760003560e01c806386cfa7d3116100a2578063a9b07c2611610071578063a9b07c2614610241578063d96a094a1461024a578063de74e57b1461025d578063eb18a9d8146102ba578063f2fde38b146102cd57600080fd5b806386cfa7d3146101e757806387c35bc0146102085780638da5cb5b1461021d5780639e252f001461022e57600080fd5b806320099c64116100e957806320099c6414610191578063305a67a8146101a657806357376198146101b9578063715018a6146101cc578063798e2f50146101d457600080fd5b80630db5de841461011b578063107a274a1461014b57806313154f821461016b57806317446da01461017e575b600080fd5b60025461012e906001600160a01b031681565b6040516001600160a01b0390911681526020015b60405180910390f35b61015e610159366004611792565b6102e0565b604051610142919061182c565b60035461012e906001600160a01b031681565b60045461012e906001600160a01b031681565b6101a461019f366004611840565b6103b8565b005b6101a46101b4366004611792565b61076a565b6101a46101c7366004611877565b610870565b6101a461096d565b6101a46101e2366004611840565b610981565b6101fa6101f5366004611877565b610d0e565b604051908152602001610142565b610210610d3f565b60405161014291906118a3565b6001546001600160a01b031661012e565b6101a461023c366004611792565b610f3d565b6101fa60065481565b6101a4610258366004611792565b610f7f565b6102a961026b366004611792565b60056020526000908152604090208054600182015460028301546003909301546001600160a01b0383169360ff600160a01b90940484169390911685565b6040516101429594939291906118f1565b6102106102c8366004611931565b611470565b6101a46102db366004611931565b611617565b61030f6040805160a0810182526000808252602082018190529181018290526060810182905290608082015290565b600082815260056020908152604091829020825160a0810190935280546001600160a01b03811684529091830190600160a01b900460ff166001811115610358576103586117ab565b6001811115610369576103696117ab565b8152600182015460208201526002808301546040830152600383015460609092019160ff169081111561039e5761039e6117ab565b60028111156103af576103af6117ab565b90525092915050565b6103c061168d565b600480546040516331a9108f60e11b815291820184905233916001600160a01b0390911690636352211e90602401602060405180830381865afa15801561040b573d6000803e3d6000fd5b505050506040513d601f19601f8201168201806040525081019061042f9190611955565b6001600160a01b0316146104815760405162461bcd60e51b81526020600482015260146024820152732737ba1037bbb732b91037b31039ba30ba34b7b760611b60448201526064015b60405180910390fd5b600081116104d15760405162461bcd60e51b815260206004820152601c60248201527f5072696365206d7573742062652067726561746572207468616e2030000000006044820152606401610478565b6004805460405163020604bf60e21b815291820184905230916001600160a01b039091169063081812fc90602401602060405180830381865afa15801561051c573d6000803e3d6000fd5b505050506040513d601f19601f820116820180604052508101906105409190611955565b6001600160a01b031614806105c357506004805460405163e985e9c560e01b815233928101929092523060248301526001600160a01b03169063e985e9c590604401602060405180830381865afa15801561059f573d6000803e3d6000fd5b505050506040513d601f19601f820116820180604052508101906105c39190611972565b61060a5760405162461bcd60e51b815260206004820152601860248201527713585c9ad95d1c1b1858d9481b9bdd08185c1c1c9bdd995960421b6044820152606401610478565b6006805490600061061a83611994565b90915550506040805160a0810190915233815260208101600181526020810184905260408101839052606001600090526006546000908152600560209081526040909120825181546001600160a01b039091166001600160a01b031982168117835592840151919283916001600160a81b03191617600160a01b8360018111156106a6576106a66117ab565b0217905550604082015181600101556060820151816002015560808201518160030160006101000a81548160ff021916908360028111156106e9576106e96117ab565b021790555050336000818152600760209081526040808320600680548254600181810185559387529490952090930193909355905490518694509092917fd7bbcdefe94167c25529ecca3d2aeb99c3574db180ed22384f4464d966d211ac91610754919087906119bb565b60405180910390a46107666001600055565b5050565b61077261168d565b600081815260056020526040812090600382015460ff16600281111561079a5761079a6117ab565b146107dc5760405162461bcd60e51b81526020600482015260126024820152714c697374696e67206e6f742061637469766560701b6044820152606401610478565b80546001600160a01b031633146108265760405162461bcd60e51b815260206004820152600e60248201526d2737ba103a34329039b2b63632b960911b6044820152606401610478565b60038101805460ff19166002179055604051829033907f36ea5cd5608625e789af0282eecdb4eae1cb7c1cf6d0ec3f9a84f35be850260b90600090a35061086d6001600055565b50565b6108786116e6565b6002546001600160a01b03908116908316036108d65760405162461bcd60e51b815260206004820152601860248201527f43616e6e6f74207265736375652055464f20746f6b656e7300000000000000006044820152606401610478565b816001600160a01b031663a9059cbb6108f76001546001600160a01b031690565b6040516001600160e01b031960e084901b1681526001600160a01b039091166004820152602481018490526044016020604051808303816000875af1158015610944573d6000803e3d6000fd5b505050506040513d601f19601f820116820180604052508101906109689190611972565b505050565b6109756116e6565b61097f6000611740565b565b61098961168d565b6003546040516331a9108f60e11b81526004810184905233916001600160a01b031690636352211e90602401602060405180830381865afa1580156109d2573d6000803e3d6000fd5b505050506040513d601f19601f820116820180604052508101906109f69190611955565b6001600160a01b031614610a405760405162461bcd60e51b815260206004820152601160248201527004e6f74206f776e6572206f66207368697607c1b6044820152606401610478565b60008111610a905760405162461bcd60e51b815260206004820152601c60248201527f5072696365206d7573742062652067726561746572207468616e2030000000006044820152606401610478565b60035460405163020604bf60e21b81526004810184905230916001600160a01b03169063081812fc90602401602060405180830381865afa158015610ad9573d6000803e3d6000fd5b505050506040513d601f19601f82011682018060405250810190610afd9190611955565b6001600160a01b03161480610b7f575060035460405163e985e9c560e01b81523360048201523060248201526001600160a01b039091169063e985e9c590604401602060405180830381865afa158015610b5b573d6000803e3d6000fd5b505050506040513d601f19601f82011682018060405250810190610b7f9190611972565b610bc65760405162461bcd60e51b815260206004820152601860248201527713585c9ad95d1c1b1858d9481b9bdd08185c1c1c9bdd995960421b6044820152606401610478565b60068054906000610bd683611994565b90915550506040805160a0810190915233815260208101600081526020810184905260408101839052606001600090526006546000908152600560209081526040909120825181546001600160a01b039091166001600160a01b031982168117835592840151919283916001600160a81b03191617600160a01b836001811115610c6257610c626117ab565b0217905550604082015181600101556060820151816002015560808201518160030160006101000a81548160ff02191690836002811115610ca557610ca56117ab565b02179055505033600081815260076020908152604080832060068054825460018101845592865293852090910192909255905490518694509092917fd7bbcdefe94167c25529ecca3d2aeb99c3574db180ed22384f4464d966d211ac91610754919087906119bb565b60076020528160005260406000208181548110610d2a57600080fd5b90600052602060002001600091509150505481565b6060600060015b6006548111610d9a5760008181526005602052604081206003015460ff166002811115610d7557610d756117ab565b03610d885781610d8481611994565b9250505b80610d9281611994565b915050610d46565b5060008167ffffffffffffffff811115610db657610db66119d6565b604051908082528060200260200182016040528015610e1657816020015b610e036040805160a0810182526000808252602082018190529181018290526060810182905290608082015290565b815260200190600190039081610dd45790505b509050600060015b6006548111610f345760008181526005602052604081206003015460ff166002811115610e4d57610e4d6117ab565b03610f2257600081815260056020908152604091829020825160a0810190935280546001600160a01b03811684529091830190600160a01b900460ff166001811115610e9b57610e9b6117ab565b6001811115610eac57610eac6117ab565b8152600182015460208201526002808301546040830152600383015460609092019160ff1690811115610ee157610ee16117ab565b6002811115610ef257610ef26117ab565b81525050838381518110610f0857610f086119ec565b60200260200101819052508180610f1e90611994565b9250505b80610f2c81611994565b915050610e1e565b50909392505050565b610f456116e6565b6001546040516001600160a01b039091169082156108fc029083906000818181858888f19350505050158015610766573d6000803e3d6000fd5b610f8761168d565b600081815260056020526040812090600382015460ff166002811115610faf57610faf6117ab565b14610ff15760405162461bcd60e51b81526020600482015260126024820152714c697374696e67206e6f742061637469766560701b6044820152606401610478565b8054336001600160a01b039091160361104c5760405162461bcd60e51b815260206004820152601b60248201527f43616e6e6f742062757920796f7572206f776e206c697374696e6700000000006044820152606401610478565b60028181015490546040516370a0823160e01b815233600482015282916001600160a01b0316906370a0823190602401602060405180830381865afa158015611099573d6000803e3d6000fd5b505050506040513d601f19601f820116820180604052508101906110bd9190611a02565b101561110b5760405162461bcd60e51b815260206004820152601860248201527f496e73756666696369656e742055464f2062616c616e636500000000000000006044820152606401610478565b600254604051636eb1769f60e11b815233600482015230602482015282916001600160a01b03169063dd62ed3e90604401602060405180830381865afa158015611159573d6000803e3d6000fd5b505050506040513d601f19601f8201168201806040525081019061117d9190611a02565b10156111c45760405162461bcd60e51b8152602060048201526016602482015275496e73756666696369656e7420616c6c6f77616e636560501b6044820152606401610478565b6002546040516323b872dd60e01b8152336004820152306024820152604481018390526001600160a01b03909116906323b872dd906064016020604051808303816000875af115801561121b573d6000803e3d6000fd5b505050506040513d601f19601f8201168201806040525081019061123f9190611972565b6112815760405162461bcd60e51b8152602060048201526013602482015272155193c81d1c985b9cd9995c8819985a5b1959606a1b6044820152606401610478565b600254604051630852cd8d60e31b8152600481018390526001600160a01b03909116906342966c6890602401600060405180830381600087803b1580156112c757600080fd5b505af11580156112db573d6000803e3d6000fd5b50600092506112e8915050565b8254600160a01b900460ff166001811115611305576113056117ab565b0361138257600354825460018401546040516323b872dd60e01b81526001600160a01b03928316600482015233602482015260448101919091529116906323b872dd90606401600060405180830381600087803b15801561136557600080fd5b505af1158015611379573d6000803e3d6000fd5b505050506113f5565b60048054835460018501546040516323b872dd60e01b81526001600160a01b0392831694810194909452336024850152604484015216906323b872dd90606401600060405180830381600087803b1580156113dc57600080fd5b505af11580156113f0573d6000803e3d6000fd5b505050505b6003820180546001919060ff19168280021790555081546001830154604051859233926001600160a01b038216927fed0f2d07b4b749494c8e22ec5138619760ae881669b7b2a0de9698c5f41536b39261145c92600160a01b90910460ff16918890611a1b565b60405180910390a4505061086d6001600055565b6001600160a01b038116600090815260076020526040812080546060929067ffffffffffffffff8111156114a6576114a66119d6565b60405190808252806020026020018201604052801561150657816020015b6114f36040805160a0810182526000808252602082018190529181018290526060810182905290608082015290565b8152602001906001900390816114c45790505b50905060005b825481101561160f576005600084838154811061152b5761152b6119ec565b600091825260208083209091015483528281019390935260409182019020815160a0810190925280546001600160a01b0381168352919290919083019060ff600160a01b909104166001811115611584576115846117ab565b6001811115611595576115956117ab565b8152600182015460208201526002808301546040830152600383015460609092019160ff16908111156115ca576115ca6117ab565b60028111156115db576115db6117ab565b815250508282815181106115f1576115f16119ec565b6020026020010181905250808061160790611994565b91505061150c565b509392505050565b61161f6116e6565b6001600160a01b0381166116845760405162461bcd60e51b815260206004820152602660248201527f4f776e61626c653a206e6577206f776e657220697320746865207a65726f206160448201526564647265737360d01b6064820152608401610478565b61086d81611740565b6002600054036116df5760405162461bcd60e51b815260206004820152601f60248201527f5265656e7472616e637947756172643a207265656e7472616e742063616c6c006044820152606401610478565b6002600055565b6001546001600160a01b0316331461097f5760405162461bcd60e51b815260206004820181905260248201527f4f776e61626c653a2063616c6c6572206973206e6f7420746865206f776e65726044820152606401610478565b600180546001600160a01b038381166001600160a01b0319831681179093556040519116919082907f8be0079c531659141344cd1fd0a4f28419497f9722a3daafe3b4186f6b6457e090600090a35050565b6000602082840312156117a457600080fd5b5035919050565b634e487b7160e01b600052602160045260246000fd5b600281106117d1576117d16117ab565b9052565b600381106117d1576117d16117ab565b80516001600160a01b0316825260208082015190611805908401826117c1565b506040810151604083015260608101516060830152608081015161096860808401826117d5565b60a0810161183a82846117e5565b92915050565b6000806040838503121561185357600080fd5b50508035926020909101359150565b6001600160a01b038116811461086d57600080fd5b6000806040838503121561188a57600080fd5b823561189581611862565b946020939093013593505050565b6020808252825182820181905260009190848201906040850190845b818110156118e5576118d28385516117e5565b9284019260a092909201916001016118bf565b50909695505050505050565b6001600160a01b038616815260a0810161190e60208301876117c1565b84604083015283606083015261192760808301846117d5565b9695505050505050565b60006020828403121561194357600080fd5b813561194e81611862565b9392505050565b60006020828403121561196757600080fd5b815161194e81611862565b60006020828403121561198457600080fd5b8151801515811461194e57600080fd5b6000600182016119b457634e487b7160e01b600052601160045260246000fd5b5060010190565b604081016119c982856117c1565b8260208301529392505050565b634e487b7160e01b600052604160045260246000fd5b634e487b7160e01b600052603260045260246000fd5b600060208284031215611a1457600080fd5b5051919050565b60608101611a2982866117c1565b60208201939093526040015291905056fea2646970667358221220ec5425935ec11197f02b3eba5db75d43940bfabadb4de0cd1d75229cfca87c5c64736f6c63430008140033",
  "linkReferences": {},
  "deployedLinkReferences": {}
}