{
  "_format": "hh-sol-artifact-1",
  "contractName": "PackSale",
  "sourceName": "contracts/PackSale.sol",
  "abi": [
    {
      "inputs": [
        {
          "internalType": "address",
          "name": "_ufoToken",
          "type": "address"
        },
        {
          "internalType": "address",
          "name": "_shipNFT",
          "type": "address"
        },
        {
          "internalType": "address",
          "name": "_stationNFT",
          "type": "address"
        }
      ],
      "stateMutability": "nonpayable",
      "type": "constructor"
    },
    {
      "anonymous": false,
      "inputs": [
        {
          "indexed": true,
          "internalType": "address",
          "name": "previousOwner",
          "type": "address"
        },
        {
          "indexed": true,
          "internalType": "address",
          "name": "newOwner",
          "type": "address"
        }
      ],
      "name": "OwnershipTransferred",
      "type": "event"
    },
    {
      "anonymous": false,
      "inputs": [
        {
          "indexed": false,
          "internalType": "enum PackSale.PackType",
          "name": "packType",
          "type": "uint8"
        },
        {
          "indexed": false,
          "internalType": "bool",
          "name": "isActive",
          "type": "bool"
        }
      ],
      "name": "PackActivated",
      "type": "event"
    },
    {
      "anonymous": false,
      "inputs": [
        {
          "indexed": true,
          "internalType": "address",
          "name": "user",
          "type": "address"
        },
        {
          "indexed": false,
          "internalType": "enum PackSale.PackType",
          "name": "packType",
          "type": "uint8"
        },
        {
          "indexed": false,
          "internalType": "uint256",
          "name": "price",
          "type": "uint256"
        }
      ],
      "name": "PackPurchased",
      "type": "event"
    },
    {
      "anonymous": false,
      "inputs": [
        {
          "indexed": false,
          "internalType": "enum PackSale.PackType",
          "name": "packType",
          "type": "uint8"
        },
        {
          "indexed": false,
          "internalType": "uint256",
          "name": "maxSupply",
          "type": "uint256"
        }
      ],
      "name": "PackSupplyUpdated",
      "type": "event"
    },
    {
      "anonymous": false,
      "inputs": [
        {
          "indexed": true,
          "internalType": "address",
          "name": "user",
          "type": "address"
        },
        {
          "indexed": false,
          "internalType": "uint256[]",
          "name": "tokenIds",
          "type": "uint256[]"
        }
      ],
      "name": "ShipsMinted",
      "type": "event"
    },
    {
      "anonymous": false,
      "inputs": [
        {
          "indexed": true,
          "internalType": "address",
          "name": "user",
          "type": "address"
        },
        {
          "indexed": false,
          "internalType": "uint256[]",
          "name": "tokenIds",
          "type": "uint256[]"
        }
      ],
      "name": "StationsMinted",
      "type": "event"
    },
    {
      "inputs": [
        {
          "internalType": "enum PackSale.PackType",
          "name": "packType",
          "type": "uint8"
        }
      ],
      "name": "getPackInfo",
      "outputs": [
        {
          "internalType": "uint256",
          "name": "price",
          "type": "uint256"
        },
        {
          "internalType": "uint256",
          "name": "ufoBonus",
          "type": "uint256"
        },
        {
          "internalType": "uint256",
          "name": "totalSupply",
          "type": "uint256"
        },
        {
          "internalType": "uint256",
          "name": "maxSupply",
          "type": "uint256"
        },
        {
          "internalType": "bool",
          "name": "isActive",
          "type": "bool"
        },
        {
          "internalType": "uint256",
          "name": "shipRewardCount",
          "type": "uint256"
        },
        {
          "internalType": "uint256",
          "name": "stationRewardCount",
          "type": "uint256"
        }
      ],
      "stateMutability": "view",
      "type": "function"
    },
    {
      "inputs": [
        {
          "internalType": "enum PackSale.PackType",
          "name": "packType",
          "type": "uint8"
        },
        {
          "internalType": "uint256",
          "name": "index",
          "type": "uint256"
        }
      ],
      "name": "getShipReward",
      "outputs": [
        {
          "components": [
            {
              "internalType": "uint8",
              "name": "tier",
              "type": "uint8"
            },
            {
              "internalType": "uint8",
              "name": "level",
              "type": "uint8"
            },
            {
              "internalType": "uint256",
              "name": "basePower",
              "type": "uint256"
            },
            {
              "internalType": "uint8",
              "name": "probability",
              "type": "uint8"
            }
          ],
          "internalType": "struct PackSale.ShipReward",
          "name": "",
          "type": "tuple"
        }
      ],
      "stateMutability": "view",
      "type": "function"
    },
    {
      "inputs": [
        {
          "internalType": "enum PackSale.PackType",
          "name": "packType",
          "type": "uint8"
        },
        {
          "internalType": "uint256",
          "name": "index",
          "type": "uint256"
        }
      ],
      "name": "getStationReward",
      "outputs": [
        {
          "components": [
            {
              "internalType": "uint8",
              "name": "tier",
              "type": "uint8"
            },
            {
              "internalType": "uint8",
              "name": "probability",
              "type": "uint8"
            }
          ],
          "internalType": "struct PackSale.StationReward",
          "name": "",
          "type": "tuple"
        }
      ],
      "stateMutability": "view",
      "type": "function"
    },
    {
      "inputs": [
        {
          "internalType": "address",
          "name": "user",
          "type": "address"
        }
      ],
      "name": "getUserPackPurchases",
      "outputs": [
        {
          "internalType": "uint256[6]",
          "name": "",
          "type": "uint256[6]"
        }
      ],
      "stateMutability": "view",
      "type": "function"
    },
    {
      "inputs": [],
      "name": "owner",
      "outputs": [
        {
          "internalType": "address",
          "name": "",
          "type": "address"
        }
      ],
      "stateMutability": "view",
      "type": "function"
    },
    {
      "inputs": [
        {
          "internalType": "enum PackSale.PackType",
          "name": "",
          "type": "uint8"
        }
      ],
      "name": "packs",
      "outputs": [
        {
          "internalType": "enum PackSale.PackType",
          "name": "packType",
          "type": "uint8"
        },
        {
          "internalType": "uint256",
          "name": "price",
          "type": "uint256"
        },
        {
          "internalType": "uint256",
          "name": "ufoBonus",
          "type": "uint256"
        },
        {
          "internalType": "uint256",
          "name": "totalSupply",
          "type": "uint256"
        },
        {
          "internalType": "uint256",
          "name": "maxSupply",
          "type": "uint256"
        },
        {
          "internalType": "bool",
          "name": "isActive",
          "type": "bool"
        },
        {
          "internalType": "uint256",
          "name": "shipRewardsCount",
          "type": "uint256"
        },
        {
          "internalType": "uint256",
          "name": "stationRewardsCount",
          "type": "uint256"
        }
      ],
      "stateMutability": "view",
      "type": "function"
    },
    {
      "inputs": [
        {
          "internalType": "enum PackSale.PackType",
          "name": "packType",
          "type": "uint8"
        }
      ],
      "name": "purchasePack",
      "outputs": [],
      "stateMutability": "nonpayable",
      "type": "function"
    },
    {
      "inputs": [],
      "name": "renounceOwnership",
      "outputs": [],
      "stateMutability": "nonpayable",
      "type": "function"
    },
    {
      "inputs": [
        {
          "internalType": "uint256",
          "name": "amount",
          "type": "uint256"
        }
      ],
      "name": "rescueETH",
      "outputs": [],
      "stateMutability": "nonpayable",
      "type": "function"
    },
    {
      "inputs": [
        {
          "internalType": "address",
          "name": "tokenAddress",
          "type": "address"
        },
        {
          "internalType": "uint256",
          "name": "amount",
          "type": "uint256"
        }
      ],
      "name": "rescueTokens",
      "outputs": [],
      "stateMutability": "nonpayable",
      "type": "function"
    },
    {
      "inputs": [
        {
          "internalType": "enum PackSale.PackType",
          "name": "packType",
          "type": "uint8"
        },
        {
          "internalType": "bool",
          "name": "isActive",
          "type": "bool"
        }
      ],
      "name": "setPackActive",
      "outputs": [],
      "stateMutability": "nonpayable",
      "type": "function"
    },
    {
      "inputs": [
        {
          "internalType": "enum PackSale.PackType",
          "name": "packType",
          "type": "uint8"
        },
        {
          "internalType": "uint256",
          "name": "maxSupply",
          "type": "uint256"
        }
      ],
      "name": "setPackMaxSupply",
      "outputs": [],
      "stateMutability": "nonpayable",
      "type": "function"
    },
    {
      "inputs": [],
      "name": "shipNFT",
      "outputs": [
        {
          "internalType": "contract ShipNFT",
          "name": "",
          "type": "address"
        }
      ],
      "stateMutability": "view",
      "type": "function"
    },
    {
      "inputs": [],
      "name": "stationNFT",
      "outputs": [
        {
          "internalType": "contract StationNFT",
          "name": "",
          "type": "address"
        }
      ],
      "stateMutability": "view",
      "type": "function"
    },
    {
      "inputs": [
        {
          "internalType": "address",
          "name": "",
          "type": "address"
        }
      ],
      "name": "totalPurchases",
      "outputs": [
        {
          "internalType": "uint256",
          "name": "",
          "type": "uint256"
        }
      ],
      "stateMutability": "view",
      "type": "function"
    },
    {
      "inputs": [
        {
          "internalType": "address",
          "name": "newOwner",
          "type": "address"
        }
      ],
      "name": "transferOwnership",
      "outputs": [],
      "stateMutability": "nonpayable",
      "type": "function"
    },
    {
      "inputs": [],
      "name": "ufoToken",
      "outputs": [
        {
          "internalType": "contract AbstractorsToken",
          "name": "",
          "type": "address"
        }
      ],
      "stateMutability": "view",
      "type": "function"
    },
    {
      "inputs": [
        {
          "internalType": "enum PackSale.PackType",
          "name": "packType",
          "type": "uint8"
        },
        {
          "internalType": "uint256",
          "name": "newPrice",
          "type": "uint256"
        }
      ],
      "name": "updatePackPrice",
      "outputs": [],
      "stateMutability": "nonpayable",
      "type": "function"
    },
    {
      "inputs": [
        {
          "internalType": "enum PackSale.PackType",
          "name": "packType",
          "type": "uint8"
        },
        {
          "internalType": "uint256",
          "name": "newUfoBonus",
          "type": "uint256"
        }
      ],
      "name": "updatePackUfoBonus",
      "outputs": [],
      "stateMutability": "nonpayable",
      "type": "function"
    },
    {
      "inputs": [
        {
          "internalType": "enum PackSale.PackType",
          "name": "packType",
          "type": "uint8"
        },
        {
          "internalType": "uint256",
          "name": "rewardIndex",
          "type": "uint256"
        },
        {
          "components": [
            {
              "internalType": "uint8",
              "name": "tier",
              "type": "uint8"
            },
            {
              "internalType": "uint8",
              "name": "level",
              "type": "uint8"
            },
            {
              "internalType": "uint256",
              "name": "basePower",
              "type": "uint256"
            },
            {
              "internalType": "uint8",
              "name": "probability",
              "type": "uint8"
            }
          ],
          "internalType": "struct PackSale.ShipReward",
          "name": "newReward",
          "type": "tuple"
        }
      ],
      "name": "updateShipReward",
      "outputs": [],
      "stateMutability": "nonpayable",
      "type": "function"
    },
    {
      "inputs": [
        {
          "internalType": "enum PackSale.PackType",
          "name": "packType",
          "type": "uint8"
        },
        {
          "internalType": "uint256",
          "name": "rewardIndex",
          "type": "uint256"
        },
        {
          "components": [
            {
              "internalType": "uint8",
              "name": "tier",
              "type": "uint8"
            },
            {
              "internalType": "uint8",
              "name": "probability",
              "type": "uint8"
            }
          ],
          "internalType": "struct PackSale.StationReward",
          "name": "newReward",
          "type": "tuple"
        }
      ],
      "name": "updateStationReward",
      "outputs": [],
      "stateMutability": "nonpayable",
      "type": "function"
    },
    {
      "inputs": [
        {
          "internalType": "address",
          "name": "",
          "type": "address"
        },
        {
          "internalType": "enum PackSale.PackType",
          "name": "",
          "type": "uint8"
        }
      ],
      "name": "userPurchases",
      "outputs": [
        {
          "internalType": "uint256",
          "name": "",
          "type": "uint256"
        }
      ],
      "stateMutability": "view",
      "type": "function"
    }
  ],
  "bytecode": "0x60806040523480156200001157600080fd5b5060405162002f0a38038062002f0a833981016040819052620000349162001182565b6200003f336200009e565b60018055600280546001600160a01b038086166001600160a01b0319928316179092556003805485841690831617905560048054928416929091169190911790556200008b336200009e565b62000095620000ee565b505050620011e2565b600080546001600160a01b038381166001600160a01b0319831681178455604051919092169283917f8be0079c531659141344cd1fd0a4f28419497f9722a3daafe3b4186f6b6457e09190a35050565b7f05b8ccbb9d4d8fb16ea74ce3c29a41f1b461fbdaff4714a0d9a8eb05499746bc805460ff19908116825568056bc75e2d631000007f05b8ccbb9d4d8fb16ea74ce3c29a41f1b461fbdaff4714a0d9a8eb05499746bd556802b5e3af16b18800007f05b8ccbb9d4d8fb16ea74ce3c29a41f1b461fbdaff4714a0d9a8eb05499746be5560007f05b8ccbb9d4d8fb16ea74ce3c29a41f1b461fbdaff4714a0d9a8eb05499746bf8190556103e87f05b8ccbb9d4d8fb16ea74ce3c29a41f1b461fbdaff4714a0d9a8eb05499746c08190557f05b8ccbb9d4d8fb16ea74ce3c29a41f1b461fbdaff4714a0d9a8eb05499746c180548416600190811790915560027f05b8ccbb9d4d8fb16ea74ce3c29a41f1b461fbdaff4714a0d9a8eb05499746c2557f05b8ccbb9d4d8fb16ea74ce3c29a41f1b461fbdaff4714a0d9a8eb05499746c383905560408051608080820183528382526020808301858152838501878152606460608087018281528b80527f05b8ccbb9d4d8fb16ea74ce3c29a41f1b461fbdaff4714a0d9a8eb05499746c480875297517f13ed34aa374912445685a12f77beef991f41d5b97c5683b3ee6f2ffe3e07b6f18054965160ff92831661ffff199889161761010091841682021790915594517f13ed34aa374912445685a12f77beef991f41d5b97c5683b3ee6f2ffe3e07b6f25590517f13ed34aa374912445685a12f77beef991f41d5b97c5683b3ee6f2ffe3e07b6f380548f16918316919091179055885196870189528987528686018a81529887019a8b52908601918252888b529590935292517f40e593106f54f9a1415ad6ec9d910d85fff6202618b23c448fec32730505f29980549651918616969092169590951794841690920293909317905592517f40e593106f54f9a1415ad6ec9d910d85fff6202618b23c448fec32730505f29a55517f40e593106f54f9a1415ad6ec9d910d85fff6202618b23c448fec32730505f29b80549095169216919091179092559060059082906005811115620003e357620003e3620011cc565b815260208101919091526040016000208054909150600190829060ff191682800217905550680d8d726b7177a800008160010181905550680821ab0d44149800008160020181905550600081600301819055506101f4816004018190555060018160050160006101000a81548160ff02191690831515021790555060038160060181905550600081600701819055506040518060800160405280600160ff168152602001600160ff1681526020016103e88152602001606460ff1681525081600801600080815260200190815260200160002060008201518160000160006101000a81548160ff021916908360ff16021790555060208201518160000160016101000a81548160ff021916908360ff1602179055506040820151816001015560608201518160020160006101000a81548160ff021916908360ff1602179055509050506040518060800160405280600160ff168152602001600260ff1681526020016104b08152602001605060ff168152508160080160006001815260200190815260200160002060008201518160000160006101000a81548160ff021916908360ff16021790555060208201518160000160016101000a81548160ff021916908360ff1602179055506040820151816001015560608201518160020160006101000a81548160ff021916908360ff1602179055509050506040518060800160405280600260ff168152602001600160ff1681526020016105dc8152602001601460ff168152508160080160006002815260200190815260200160002060008201518160000160006101000a81548160ff021916908360ff16021790555060208201518160000160016101000a81548160ff021916908360ff1602179055506040820151816001015560608201518160020160006101000a81548160ff021916908360ff16021790555090505060006005600060026005811115620006ac57620006ac620011cc565b6005811115620006c057620006c0620011cc565b815260208101919091526040016000208054909150600290829060ff19166001830217905550681b1ae4d6e2ef50000081600101819055506812f939c99edab8000081600201819055506000816003018190555060fa816004018190555060018160050160006101000a81548160ff02191690831515021790555060048160060181905550600181600701819055506040518060800160405280600160ff168152602001600260ff1681526020016104b08152602001606460ff1681525081600801600080815260200190815260200160002060008201518160000160006101000a81548160ff021916908360ff16021790555060208201518160000160016101000a81548160ff021916908360ff1602179055506040820151816001015560608201518160020160006101000a81548160ff021916908360ff1602179055509050506040518060800160405280600260ff168152602001600160ff1681526020016105dc8152602001606460ff168152508160080160006001815260200190815260200160002060008201518160000160006101000a81548160ff021916908360ff16021790555060208201518160000160016101000a81548160ff021916908360ff1602179055506040820151816001015560608201518160020160006101000a81548160ff021916908360ff1602179055509050506040518060800160405280600260ff168152602001600260ff1681526020016107088152602001603260ff168152508160080160006002815260200190815260200160002060008201518160000160006101000a81548160ff021916908360ff16021790555060208201518160000160016101000a81548160ff021916908360ff1602179055506040820151816001015560608201518160020160006101000a81548160ff021916908360ff1602179055509050506040518060800160405280600360ff168152602001600160ff1681526020016107d08152602001600a60ff168152508160080160006003815260200190815260200160002060008201518160000160006101000a81548160ff021916908360ff16021790555060208201518160000160016101000a81548160ff021916908360ff1602179055506040820151816001015560608201518160020160006101000a81548160ff021916908360ff1602179055509050506040518060400160405280600160ff168152602001606460ff1681525081600901600080815260200190815260200160002060008201518160000160006101000a81548160ff021916908360ff16021790555060208201518160000160016101000a81548160ff021916908360ff1602179055509050506000600560006003600581111562000ab55762000ab5620011cc565b600581111562000ac95762000ac9620011cc565b8152602080820192909252604090810160009081208054600360ff19918216811783556802b5e3af16b18800006001808501919091556002808501869055918401859055611388600480860191909155600580860180548616905560068601839055600786018790558751608081018952838152808a018481526103e8828b019081526064606084019081528a805260088a01909c5299892091518254915160ff9081166101000261ffff1990931691811691909117919091178255985193810193909355975191909201805491909616921691909117909355935091908290815260208101919091526040016000208054909150600490829060ff19166001830217905550680821ab0d4414980000816001018190555060008160020181905550600081600301819055506107d0816004018190555060008160050160006101000a81548160ff02191690831515021790555060028160060181905550600181600701819055506040518060800160405280600160ff168152602001600160ff1681526020016103e88152602001606460ff1681525081600801600080815260200190815260200160002060008201518160000160006101000a81548160ff021916908360ff16021790555060208201518160000160016101000a81548160ff021916908360ff1602179055506040820151816001015560608201518160020160006101000a81548160ff021916908360ff1602179055509050506040518060800160405280600160ff168152602001600260ff1681526020016104b08152602001605060ff168152508160080160006001815260200190815260200160002060008201518160000160006101000a81548160ff021916908360ff16021790555060208201518160000160016101000a81548160ff021916908360ff1602179055506040820151816001015560608201518160020160006101000a81548160ff021916908360ff1602179055509050506040518060400160405280600160ff168152602001606460ff1681525081600901600080815260200190815260200160002060008201518160000160006101000a81548160ff021916908360ff16021790555060208201518160000160016101000a81548160ff021916908360ff16021790555090505060006005600060058081111562000e2c5762000e2c620011cc565b600581111562000e405762000e40620011cc565b815260208101919091526040016000208054909150600590829060ff19166001830217905550681043561a8829300000816001018190555060008160020181905550600081600301819055506103e8816004018190555060008160050160006101000a81548160ff02191690831515021790555060038160060181905550600181600701819055506040518060800160405280600160ff168152602001600260ff1681526020016104b08152602001606460ff1681525081600801600080815260200190815260200160002060008201518160000160006101000a81548160ff021916908360ff16021790555060208201518160000160016101000a81548160ff021916908360ff1602179055506040820151816001015560608201518160020160006101000a81548160ff021916908360ff1602179055509050506040518060800160405280600260ff168152602001600160ff1681526020016105dc8152602001605060ff168152508160080160006001815260200190815260200160002060008201518160000160006101000a81548160ff021916908360ff16021790555060208201518160000160016101000a81548160ff021916908360ff1602179055506040820151816001015560608201518160020160006101000a81548160ff021916908360ff1602179055509050506040518060800160405280600260ff168152602001600260ff1681526020016107088152602001603260ff168152508160080160006002815260200190815260200160002060008201518160000160006101000a81548160ff021916908360ff16021790555060208201518160000160016101000a81548160ff021916908360ff1602179055506040820151816001015560608201518160020160006101000a81548160ff021916908360ff1602179055509050506040518060400160405280600260ff168152602001606460ff1681525081600901600080815260200190815260200160002060008201518160000160006101000a81548160ff021916908360ff16021790555060208201518160000160016101000a81548160ff021916908360ff160217905550905050505050505050565b80516001600160a01b03811681146200117d57600080fd5b919050565b6000806000606084860312156200119857600080fd5b620011a38462001165565b9250620011b36020850162001165565b9150620011c36040850162001165565b90509250925092565b634e487b7160e01b600052602160045260246000fd5b611d1880620011f26000396000f3fe608060405234801561001057600080fd5b50600436106101425760003560e01c8063715018a6116100b85780639e252f001161007c5780639e252f0014610355578063cf68539214610368578063d5b989fc1461037b578063dc2c6775146103e8578063dc481cd914610408578063f2fde38b1461041b57600080fd5b8063715018a6146102bf5780637ad37869146102c75780638da5cb5b146102e7578063934a6ba1146102f85780639b993d641461030b57600080fd5b80631ef6b79e1161010a5780631ef6b79e146101eb57806346edaf89146101fe5780634a52540914610211578063573761981461022457806357f4b957146102375780636cddf9f71461028b57600080fd5b80630db5de841461014757806313154f821461017757806314ee78e01461018a5780631685f5f4146101c357806317446da0146101d8575b600080fd5b60025461015a906001600160a01b031681565b6040516001600160a01b0390911681526020015b60405180910390f35b60035461015a906001600160a01b031681565b6101b5610198366004611896565b600660209081526000928352604080842090915290825290205481565b60405190815260200161016e565b6101d66101d13660046118c9565b61042e565b005b60045461015a906001600160a01b031681565b6101d66101f93660046118eb565b610d77565b6101d661020c3660046118eb565b610e97565b6101d661021f36600461193c565b610edf565b6101d66102323660046119f2565b611001565b61024a6102453660046118eb565b6110fe565b60405161016e9190600060808201905060ff835116825260ff60208401511660208301526040830151604083015260ff606084015116606083015292915050565b61029e6102993660046118eb565b61121f565b60408051825160ff908116825260209384015116928101929092520161016e565b6101d6611315565b6101b56102d5366004611a0e565b60076020526000908152604090205481565b6000546001600160a01b031661015a565b6101d6610306366004611a37565b611329565b61031e6103193660046118c9565b6113b2565b6040805197885260208801969096529486019390935260608501919091521515608084015260a083015260c082015260e00161016e565b6101d6610363366004611a6e565b611433565b6101d66103763660046118eb565b611478565b6103d46103893660046118c9565b60056020819052600091825260409091208054600182015460028301546003840154600485015495850154600686015460079096015460ff9586169794969395929493919092169188565b60405161016e989796959493929190611abf565b6103fb6103f6366004611a0e565b6114c0565b60405161016e9190611b05565b6101d6610416366004611b36565b611548565b6101d6610429366004611a0e565b61163f565b6104366116b5565b60006005600083600581111561044e5761044e611a87565b600581111561045f5761045f611a87565b81526020810191909152604001600020600581015490915060ff166104bd5760405162461bcd60e51b815260206004820152600f60248201526e5061636b206e6f742061637469766560881b60448201526064015b60405180910390fd5b80600401548160030154106105045760405162461bcd60e51b815260206004820152600d60248201526c141858dac81cdbdb19081bdd5d609a1b60448201526064016104b4565b60018101546002546040516370a0823160e01b81523360048201526001600160a01b03909116906370a0823190602401602060405180830381865afa158015610551573d6000803e3d6000fd5b505050506040513d601f19601f820116820180604052508101906105759190611bd1565b10156105c35760405162461bcd60e51b815260206004820152601860248201527f496e73756666696369656e742055464f2062616c616e6365000000000000000060448201526064016104b4565b6001810154600254604051636eb1769f60e11b81523360048201523060248201526001600160a01b039091169063dd62ed3e90604401602060405180830381865afa158015610616573d6000803e3d6000fd5b505050506040513d601f19601f8201168201806040525081019061063a9190611bd1565b10156106815760405162461bcd60e51b8152602060048201526016602482015275496e73756666696369656e7420616c6c6f77616e636560501b60448201526064016104b4565b60025460018201546040516323b872dd60e01b815233600482015230602482015260448101919091526001600160a01b03909116906323b872dd906064016020604051808303816000875af11580156106de573d6000803e3d6000fd5b505050506040513d601f19601f820116820180604052508101906107029190611bea565b6107445760405162461bcd60e51b8152602060048201526013602482015272155193c81d1c985b9cd9995c8819985a5b1959606a1b60448201526064016104b4565b6002546001820154604051630852cd8d60e31b81526001600160a01b03909216916342966c689161077b9160040190815260200190565b600060405180830381600087803b15801561079557600080fd5b505af11580156107a9573d6000803e3d6000fd5b5050505060028101541561083457600280549082015460405163a9059cbb60e01b815233600482015260248101919091526001600160a01b039091169063a9059cbb906044016020604051808303816000875af115801561080e573d6000803e3d6000fd5b505050506040513d601f19601f820116820180604052508101906108329190611bea565b505b6000816006015467ffffffffffffffff81111561085357610853611915565b60405190808252806020026020018201604052801561087c578160200160208202803683370190505b5090506000805b836006015481101561098a576000818152600885016020526040902060028101546108b09060ff1661170e565b15610977576003548154600183015460405163051f868f60e31b815233600482015260ff8084166024830152610100909304909216604483015260648201526000916001600160a01b0316906328fc3478906084016020604051808303816000875af1158015610924573d6000803e3d6000fd5b505050506040513d601f19601f820116820180604052508101906109489190611bd1565b90508085858151811061095d5761095d611c07565b60209081029190910101528361097281611c1d565b945050505b508061098281611c1d565b915050610883565b506000836007015467ffffffffffffffff8111156109aa576109aa611915565b6040519080825280602002602001820160405280156109d3578160200160208202803683370190505b5090506000805b8560070154811015610ace57600081815260098701602052604090208054610a0990610100900460ff1661170e565b15610abb57600480548254604051630348ab1560e51b8152339381019390935260ff1660248301526000916001600160a01b039091169063691562a0906044016020604051808303816000875af1158015610a68573d6000803e3d6000fd5b505050506040513d601f19601f82011682018060405250810190610a8c9190611bd1565b905080858581518110610aa157610aa1611c07565b602090810291909101015283610ab681611c1d565b945050505b5080610ac681611c1d565b9150506109da565b50600385018054906000610ae183611c1d565b909155505033600090815260066020526040812090876005811115610b0857610b08611a87565b6005811115610b1957610b19611a87565b81526020019081526020016000206000815480929190610b3890611c1d565b9091555050336000908152600760205260408120805491610b5883611c1d565b9091555050600185015460405133917f7651c066d809fd07e90f2b24fe9f9b6d4679a2c59c152eb5d8cae5203b43cf4891610b94918a91611c44565b60405180910390a28215610c815760008367ffffffffffffffff811115610bbd57610bbd611915565b604051908082528060200260200182016040528015610be6578160200160208202803683370190505b50905060005b84811015610c3d57858181518110610c0657610c06611c07565b6020026020010151828281518110610c2057610c20611c07565b602090810291909101015280610c3581611c1d565b915050610bec565b50336001600160a01b03167fa005821366f30141700a64895eb2f17331af0f525d38301a11a79f6f39283d1e82604051610c779190611c5f565b60405180910390a2505b8015610d665760008167ffffffffffffffff811115610ca257610ca2611915565b604051908082528060200260200182016040528015610ccb578160200160208202803683370190505b50905060005b82811015610d2257838181518110610ceb57610ceb611c07565b6020026020010151828281518110610d0557610d05611c07565b602090810291909101015280610d1a81611c1d565b915050610cd1565b50336001600160a01b03167f322d91b28639703201b411d87a7739e784de97fd631bbc7c056392e1af9c9ed682604051610d5c9190611c5f565b60405180910390a2505b5050505050610d7460018055565b50565b610d7f6117a3565b60056000836005811115610d9557610d95611a87565b6005811115610da657610da6611a87565b815260200190815260200160002060030154811015610e1d5760405162461bcd60e51b815260206004820152602d60248201527f4d617820737570706c792063616e6e6f74206265206c657373207468616e206360448201526c757272656e7420737570706c7960981b60648201526084016104b4565b8060056000846005811115610e3457610e34611a87565b6005811115610e4557610e45611a87565b8152602001908152602001600020600401819055507fd3c0a39d36be39f0f61d528282f858e0f75c25ea8607e44e9b4c0d12dcf2e0c48282604051610e8b929190611c44565b60405180910390a15050565b610e9f6117a3565b8060056000846005811115610eb657610eb6611a87565b6005811115610ec757610ec7611a87565b81526020810191909152604001600020600201555050565b610ee76117a3565b60056000846005811115610efd57610efd611a87565b6005811115610f0e57610f0e611a87565b8152602001908152602001600020600601548210610f655760405162461bcd60e51b8152602060048201526014602482015273092dcecc2d8d2c840e4caeec2e4c840d2dcc8caf60631b60448201526064016104b4565b8060056000856005811115610f7c57610f7c611a87565b6005811115610f8d57610f8d611a87565b8152602080820192909252604090810160009081209581526008909501825293849020825181549284015160ff9081166101000261ffff1990941691811691909117929092178155938201516001850155606090910151600290930180549390911660ff1993909316929092179091555050565b6110096117a3565b6002546001600160a01b03908116908316036110675760405162461bcd60e51b815260206004820152601860248201527f43616e6e6f74207265736375652055464f20746f6b656e73000000000000000060448201526064016104b4565b816001600160a01b031663a9059cbb6110886000546001600160a01b031690565b6040516001600160e01b031960e084901b1681526001600160a01b039091166004820152602481018490526044016020604051808303816000875af11580156110d5573d6000803e3d6000fd5b505050506040513d601f19601f820116820180604052508101906110f99190611bea565b505050565b6040805160808101825260008082526020820181905291810182905260608101919091526005600084600581111561113857611138611a87565b600581111561114957611149611a87565b81526020019081526020016000206006015482106111995760405162461bcd60e51b815260206004820152600d60248201526c092dcecc2d8d2c840d2dcc8caf609b1b60448201526064016104b4565b600560008460058111156111af576111af611a87565b60058111156111c0576111c0611a87565b81526020808201929092526040908101600090812094815260089094018252928390208351608081018552815460ff80821683526101009091048116938201939093526001820154948101949094526002015416606083015250919050565b60408051808201909152600080825260208201526005600084600581111561124957611249611a87565b600581111561125a5761125a611a87565b81526020019081526020016000206007015482106112aa5760405162461bcd60e51b815260206004820152600d60248201526c092dcecc2d8d2c840d2dcc8caf609b1b60448201526064016104b4565b600560008460058111156112c0576112c0611a87565b60058111156112d1576112d1611a87565b815260208082019290925260409081016000908120948152600990940182529283902083518085019094525460ff8082168552610100909104169083015250919050565b61131d6117a3565b61132760006117fd565b565b6113316117a3565b806005600084600581111561134857611348611a87565b600581111561135957611359611a87565b815260200190815260200160002060050160006101000a81548160ff0219169083151502179055507fc42b50169cff890939508b57133c028ff986a585a00d16b5a86a9cffdbe9a9b68282604051610e8b929190611ca3565b600080600080600080600080600560008a60058111156113d4576113d4611a87565b60058111156113e5576113e5611a87565b81526020810191909152604001600020600181015460028201546003830154600484015460058501546006860154600790960154949f939e50919c509a5060ff169850919650945092505050565b61143b6117a3565b600080546040516001600160a01b039091169183156108fc02918491818181858888f19350505050158015611474573d6000803e3d6000fd5b5050565b6114806117a3565b806005600084600581111561149757611497611a87565b60058111156114a8576114a8611a87565b81526020810191909152604001600020600101555050565b6114c861184d565b506040805160c0810182526001600160a01b03929092166000908152600660209081528282208280528082528383205485526001835280825283832054828601526002835280825283832054858501526003835280825283832054606086015260048352808252838320546080860152600583529052205460a082015290565b6115506117a3565b6005600084600581111561156657611566611a87565b600581111561157757611577611a87565b81526020019081526020016000206007015482106115ce5760405162461bcd60e51b8152602060048201526014602482015273092dcecc2d8d2c840e4caeec2e4c840d2dcc8caf60631b60448201526064016104b4565b80600560008560058111156115e5576115e5611a87565b60058111156115f6576115f6611a87565b8152602080820192909252604090810160009081209581526009909501825290932081518154929094015160ff9081166101000261ffff19909316941693909317179091555050565b6116476117a3565b6001600160a01b0381166116ac5760405162461bcd60e51b815260206004820152602660248201527f4f776e61626c653a206e6577206f776e657220697320746865207a65726f206160448201526564647265737360d01b60648201526084016104b4565b610d74816117fd565b6002600154036117075760405162461bcd60e51b815260206004820152601f60248201527f5265656e7472616e637947756172643a207265656e7472616e742063616c6c0060448201526064016104b4565b6002600155565b60008160ff1660640361172357506001919050565b8160ff1660000361173657506000919050565b6000606442443360405160200161177293929190928352602083019190915260601b6bffffffffffffffffffffffff1916604082015260540190565b6040516020818303038152906040528051906020012060001c6117959190611cc0565b60ff90931690921092915050565b6000546001600160a01b031633146113275760405162461bcd60e51b815260206004820181905260248201527f4f776e61626c653a2063616c6c6572206973206e6f7420746865206f776e657260448201526064016104b4565b600080546001600160a01b038381166001600160a01b0319831681178455604051919092169283917f8be0079c531659141344cd1fd0a4f28419497f9722a3daafe3b4186f6b6457e09190a35050565b6040518060c001604052806006906020820280368337509192915050565b80356001600160a01b038116811461188257600080fd5b919050565b80356006811061188257600080fd5b600080604083850312156118a957600080fd5b6118b28361186b565b91506118c060208401611887565b90509250929050565b6000602082840312156118db57600080fd5b6118e482611887565b9392505050565b600080604083850312156118fe57600080fd5b61190783611887565b946020939093013593505050565b634e487b7160e01b600052604160045260246000fd5b803560ff8116811461188257600080fd5b600080600083850360c081121561195257600080fd5b61195b85611887565b9350602085013592506080603f198201121561197657600080fd5b506040516080810181811067ffffffffffffffff821117156119a857634e487b7160e01b600052604160045260246000fd5b80604052506119b96040860161192b565b81526119c76060860161192b565b6020820152608085013560408201526119e260a0860161192b565b6060820152809150509250925092565b60008060408385031215611a0557600080fd5b6119078361186b565b600060208284031215611a2057600080fd5b6118e48261186b565b8015158114610d7457600080fd5b60008060408385031215611a4a57600080fd5b611a5383611887565b91506020830135611a6381611a29565b809150509250929050565b600060208284031215611a8057600080fd5b5035919050565b634e487b7160e01b600052602160045260246000fd5b60068110611abb57634e487b7160e01b600052602160045260246000fd5b9052565b6101008101611ace828b611a9d565b6020820198909852604081019690965260608601949094526080850192909252151560a084015260c083015260e090910152919050565b60c08101818360005b6006811015611b2d578151835260209283019290910190600101611b0e565b50505092915050565b60008060008385036080811215611b4c57600080fd5b611b5585611887565b9350602085013592506040603f1982011215611b7057600080fd5b506040516040810181811067ffffffffffffffff82111715611ba257634e487b7160e01b600052604160045260246000fd5b8060405250611bb36040860161192b565b8152611bc16060860161192b565b6020820152809150509250925092565b600060208284031215611be357600080fd5b5051919050565b600060208284031215611bfc57600080fd5b81516118e481611a29565b634e487b7160e01b600052603260045260246000fd5b600060018201611c3d57634e487b7160e01b600052601160045260246000fd5b5060010190565b60408101611c528285611a9d565b8260208301529392505050565b6020808252825182820181905260009190848201906040850190845b81811015611c9757835183529284019291840191600101611c7b565b50909695505050505050565b60408101611cb18285611a9d565b82151560208301529392505050565b600082611cdd57634e487b7160e01b600052601260045260246000fd5b50069056fea2646970667358221220b22be328c165aa528d3f6835f43fbac2114c9bf5f721954c1f2de3f14b2cb27664736f6c63430008140033",
  "linkReferences": {},
  "deployedLinkReferences": {}
}