{
  "_format": "hh-sol-artifact-1",
  "contractName": "PackSale",
  "sourceName": "contracts/PackSale.sol",
  "abi": [
    {
      "inputs": [
        {
          "internalType": "address",
          "name": "_ufoToken",
          "type": "address"
        },
        {
          "internalType": "address",
          "name": "_shipNFT",
          "type": "address"
        },
        {
          "internalType": "address",
          "name": "_stationNFT",
          "type": "address"
        }
      ],
      "stateMutability": "nonpayable",
      "type": "constructor"
    },
    {
      "anonymous": false,
      "inputs": [
        {
          "indexed": true,
          "internalType": "address",
          "name": "previousOwner",
          "type": "address"
        },
        {
          "indexed": true,
          "internalType": "address",
          "name": "newOwner",
          "type": "address"
        }
      ],
      "name": "OwnershipTransferred",
      "type": "event"
    },
    {
      "anonymous": false,
      "inputs": [
        {
          "indexed": false,
          "internalType": "enum PackSale.PackType",
          "name": "packType",
          "type": "uint8"
        },
        {
          "indexed": false,
          "internalType": "bool",
          "name": "isActive",
          "type": "bool"
        }
      ],
      "name": "PackActivated",
      "type": "event"
    },
    {
      "anonymous": false,
      "inputs": [
        {
          "indexed": true,
          "internalType": "address",
          "name": "user",
          "type": "address"
        },
        {
          "indexed": false,
          "internalType": "enum PackSale.PackType",
          "name": "packType",
          "type": "uint8"
        },
        {
          "indexed": false,
          "internalType": "uint256",
          "name": "price",
          "type": "uint256"
        }
      ],
      "name": "PackPurchased",
      "type": "event"
    },
    {
      "anonymous": false,
      "inputs": [
        {
          "indexed": false,
          "internalType": "enum PackSale.PackType",
          "name": "packType",
          "type": "uint8"
        },
        {
          "indexed": false,
          "internalType": "uint256",
          "name": "maxSupply",
          "type": "uint256"
        }
      ],
      "name": "PackSupplyUpdated",
      "type": "event"
    },
    {
      "anonymous": false,
      "inputs": [
        {
          "indexed": true,
          "internalType": "address",
          "name": "user",
          "type": "address"
        },
        {
          "indexed": false,
          "internalType": "uint256[]",
          "name": "tokenIds",
          "type": "uint256[]"
        }
      ],
      "name": "ShipsMinted",
      "type": "event"
    },
    {
      "anonymous": false,
      "inputs": [
        {
          "indexed": true,
          "internalType": "address",
          "name": "user",
          "type": "address"
        },
        {
          "indexed": false,
          "internalType": "uint256[]",
          "name": "tokenIds",
          "type": "uint256[]"
        }
      ],
      "name": "StationsMinted",
      "type": "event"
    },
    {
      "inputs": [
        {
          "internalType": "enum PackSale.PackType",
          "name": "packType",
          "type": "uint8"
        }
      ],
      "name": "getPackInfo",
      "outputs": [
        {
          "internalType": "uint256",
          "name": "price",
          "type": "uint256"
        },
        {
          "internalType": "uint256",
          "name": "ufoBonus",
          "type": "uint256"
        },
        {
          "internalType": "uint256",
          "name": "totalSupply",
          "type": "uint256"
        },
        {
          "internalType": "uint256",
          "name": "maxSupply",
          "type": "uint256"
        },
        {
          "internalType": "bool",
          "name": "isActive",
          "type": "bool"
        },
        {
          "internalType": "uint256",
          "name": "shipRewardCount",
          "type": "uint256"
        },
        {
          "internalType": "uint256",
          "name": "stationRewardCount",
          "type": "uint256"
        }
      ],
      "stateMutability": "view",
      "type": "function"
    },
    {
      "inputs": [
        {
          "internalType": "enum PackSale.PackType",
          "name": "packType",
          "type": "uint8"
        },
        {
          "internalType": "uint256",
          "name": "index",
          "type": "uint256"
        }
      ],
      "name": "getShipReward",
      "outputs": [
        {
          "components": [
            {
              "internalType": "uint8",
              "name": "tier",
              "type": "uint8"
            },
            {
              "internalType": "uint8",
              "name": "level",
              "type": "uint8"
            },
            {
              "internalType": "uint256",
              "name": "basePower",
              "type": "uint256"
            },
            {
              "internalType": "uint8",
              "name": "probability",
              "type": "uint8"
            }
          ],
          "internalType": "struct PackSale.ShipReward",
          "name": "",
          "type": "tuple"
        }
      ],
      "stateMutability": "view",
      "type": "function"
    },
    {
      "inputs": [
        {
          "internalType": "enum PackSale.PackType",
          "name": "packType",
          "type": "uint8"
        },
        {
          "internalType": "uint256",
          "name": "index",
          "type": "uint256"
        }
      ],
      "name": "getStationReward",
      "outputs": [
        {
          "components": [
            {
              "internalType": "uint8",
              "name": "tier",
              "type": "uint8"
            },
            {
              "internalType": "uint8",
              "name": "probability",
              "type": "uint8"
            }
          ],
          "internalType": "struct PackSale.StationReward",
          "name": "",
          "type": "tuple"
        }
      ],
      "stateMutability": "view",
      "type": "function"
    },
    {
      "inputs": [
        {
          "internalType": "address",
          "name": "user",
          "type": "address"
        }
      ],
      "name": "getUserPackPurchases",
      "outputs": [
        {
          "internalType": "uint256[6]",
          "name": "",
          "type": "uint256[6]"
        }
      ],
      "stateMutability": "view",
      "type": "function"
    },
    {
      "inputs": [
        {
          "internalType": "address",
          "name": "to",
          "type": "address"
        },
        {
          "internalType": "uint8",
          "name": "tier",
          "type": "uint8"
        },
        {
          "internalType": "uint8",
          "name": "level",
          "type": "uint8"
        },
        {
          "internalType": "uint256",
          "name": "basePower",
          "type": "uint256"
        }
      ],
      "name": "mintShipDirectly",
      "outputs": [],
      "stateMutability": "nonpayable",
      "type": "function"
    },
    {
      "inputs": [
        {
          "internalType": "address",
          "name": "to",
          "type": "address"
        },
        {
          "internalType": "uint8",
          "name": "tier",
          "type": "uint8"
        }
      ],
      "name": "mintStationDirectly",
      "outputs": [],
      "stateMutability": "nonpayable",
      "type": "function"
    },
    {
      "inputs": [],
      "name": "owner",
      "outputs": [
        {
          "internalType": "address",
          "name": "",
          "type": "address"
        }
      ],
      "stateMutability": "view",
      "type": "function"
    },
    {
      "inputs": [
        {
          "internalType": "enum PackSale.PackType",
          "name": "",
          "type": "uint8"
        }
      ],
      "name": "packs",
      "outputs": [
        {
          "internalType": "enum PackSale.PackType",
          "name": "packType",
          "type": "uint8"
        },
        {
          "internalType": "uint256",
          "name": "price",
          "type": "uint256"
        },
        {
          "internalType": "uint256",
          "name": "ufoBonus",
          "type": "uint256"
        },
        {
          "internalType": "uint256",
          "name": "totalSupply",
          "type": "uint256"
        },
        {
          "internalType": "uint256",
          "name": "maxSupply",
          "type": "uint256"
        },
        {
          "internalType": "bool",
          "name": "isActive",
          "type": "bool"
        },
        {
          "internalType": "uint256",
          "name": "shipRewardsCount",
          "type": "uint256"
        },
        {
          "internalType": "uint256",
          "name": "stationRewardsCount",
          "type": "uint256"
        }
      ],
      "stateMutability": "view",
      "type": "function"
    },
    {
      "inputs": [
        {
          "internalType": "enum PackSale.PackType",
          "name": "packType",
          "type": "uint8"
        }
      ],
      "name": "purchasePack",
      "outputs": [],
      "stateMutability": "nonpayable",
      "type": "function"
    },
    {
      "inputs": [],
      "name": "renounceOwnership",
      "outputs": [],
      "stateMutability": "nonpayable",
      "type": "function"
    },
    {
      "inputs": [
        {
          "internalType": "uint256",
          "name": "amount",
          "type": "uint256"
        }
      ],
      "name": "rescueETH",
      "outputs": [],
      "stateMutability": "nonpayable",
      "type": "function"
    },
    {
      "inputs": [
        {
          "internalType": "address",
          "name": "tokenAddress",
          "type": "address"
        },
        {
          "internalType": "uint256",
          "name": "amount",
          "type": "uint256"
        }
      ],
      "name": "rescueTokens",
      "outputs": [],
      "stateMutability": "nonpayable",
      "type": "function"
    },
    {
      "inputs": [
        {
          "internalType": "enum PackSale.PackType",
          "name": "packType",
          "type": "uint8"
        },
        {
          "internalType": "bool",
          "name": "isActive",
          "type": "bool"
        }
      ],
      "name": "setPackActive",
      "outputs": [],
      "stateMutability": "nonpayable",
      "type": "function"
    },
    {
      "inputs": [
        {
          "internalType": "enum PackSale.PackType",
          "name": "packType",
          "type": "uint8"
        },
        {
          "internalType": "uint256",
          "name": "maxSupply",
          "type": "uint256"
        }
      ],
      "name": "setPackMaxSupply",
      "outputs": [],
      "stateMutability": "nonpayable",
      "type": "function"
    },
    {
      "inputs": [],
      "name": "shipNFT",
      "outputs": [
        {
          "internalType": "contract ShipNFT",
          "name": "",
          "type": "address"
        }
      ],
      "stateMutability": "view",
      "type": "function"
    },
    {
      "inputs": [],
      "name": "stationNFT",
      "outputs": [
        {
          "internalType": "contract StationNFT",
          "name": "",
          "type": "address"
        }
      ],
      "stateMutability": "view",
      "type": "function"
    },
    {
      "inputs": [
        {
          "internalType": "address",
          "name": "",
          "type": "address"
        }
      ],
      "name": "totalPurchases",
      "outputs": [
        {
          "internalType": "uint256",
          "name": "",
          "type": "uint256"
        }
      ],
      "stateMutability": "view",
      "type": "function"
    },
    {
      "inputs": [
        {
          "internalType": "address",
          "name": "newOwner",
          "type": "address"
        }
      ],
      "name": "transferOwnership",
      "outputs": [],
      "stateMutability": "nonpayable",
      "type": "function"
    },
    {
      "inputs": [],
      "name": "ufoToken",
      "outputs": [
        {
          "internalType": "contract AbstractorsToken",
          "name": "",
          "type": "address"
        }
      ],
      "stateMutability": "view",
      "type": "function"
    },
    {
      "inputs": [
        {
          "internalType": "enum PackSale.PackType",
          "name": "packType",
          "type": "uint8"
        },
        {
          "internalType": "uint256",
          "name": "newPrice",
          "type": "uint256"
        }
      ],
      "name": "updatePackPrice",
      "outputs": [],
      "stateMutability": "nonpayable",
      "type": "function"
    },
    {
      "inputs": [
        {
          "internalType": "enum PackSale.PackType",
          "name": "packType",
          "type": "uint8"
        },
        {
          "internalType": "uint256",
          "name": "newUfoBonus",
          "type": "uint256"
        }
      ],
      "name": "updatePackUfoBonus",
      "outputs": [],
      "stateMutability": "nonpayable",
      "type": "function"
    },
    {
      "inputs": [
        {
          "internalType": "enum PackSale.PackType",
          "name": "packType",
          "type": "uint8"
        },
        {
          "internalType": "uint256",
          "name": "rewardIndex",
          "type": "uint256"
        },
        {
          "components": [
            {
              "internalType": "uint8",
              "name": "tier",
              "type": "uint8"
            },
            {
              "internalType": "uint8",
              "name": "level",
              "type": "uint8"
            },
            {
              "internalType": "uint256",
              "name": "basePower",
              "type": "uint256"
            },
            {
              "internalType": "uint8",
              "name": "probability",
              "type": "uint8"
            }
          ],
          "internalType": "struct PackSale.ShipReward",
          "name": "newReward",
          "type": "tuple"
        }
      ],
      "name": "updateShipReward",
      "outputs": [],
      "stateMutability": "nonpayable",
      "type": "function"
    },
    {
      "inputs": [
        {
          "internalType": "enum PackSale.PackType",
          "name": "packType",
          "type": "uint8"
        },
        {
          "internalType": "uint256",
          "name": "rewardIndex",
          "type": "uint256"
        },
        {
          "components": [
            {
              "internalType": "uint8",
              "name": "tier",
              "type": "uint8"
            },
            {
              "internalType": "uint8",
              "name": "probability",
              "type": "uint8"
            }
          ],
          "internalType": "struct PackSale.StationReward",
          "name": "newReward",
          "type": "tuple"
        }
      ],
      "name": "updateStationReward",
      "outputs": [],
      "stateMutability": "nonpayable",
      "type": "function"
    },
    {
      "inputs": [
        {
          "internalType": "address",
          "name": "",
          "type": "address"
        },
        {
          "internalType": "enum PackSale.PackType",
          "name": "",
          "type": "uint8"
        }
      ],
      "name": "userPurchases",
      "outputs": [
        {
          "internalType": "uint256",
          "name": "",
          "type": "uint256"
        }
      ],
      "stateMutability": "view",
      "type": "function"
    }
  ],
  "bytecode": "0x60806040523480156200001157600080fd5b50604051620030d5380380620030d5833981016040819052620000349162001182565b6200003f336200009e565b60018055600280546001600160a01b038086166001600160a01b0319928316179092556003805485841690831617905560048054928416929091169190911790556200008b336200009e565b62000095620000ee565b505050620011e2565b600080546001600160a01b038381166001600160a01b0319831681178455604051919092169283917f8be0079c531659141344cd1fd0a4f28419497f9722a3daafe3b4186f6b6457e09190a35050565b7f05b8ccbb9d4d8fb16ea74ce3c29a41f1b461fbdaff4714a0d9a8eb05499746bc805460ff19908116825568056bc75e2d631000007f05b8ccbb9d4d8fb16ea74ce3c29a41f1b461fbdaff4714a0d9a8eb05499746bd556802b5e3af16b18800007f05b8ccbb9d4d8fb16ea74ce3c29a41f1b461fbdaff4714a0d9a8eb05499746be5560007f05b8ccbb9d4d8fb16ea74ce3c29a41f1b461fbdaff4714a0d9a8eb05499746bf8190556103e87f05b8ccbb9d4d8fb16ea74ce3c29a41f1b461fbdaff4714a0d9a8eb05499746c08190557f05b8ccbb9d4d8fb16ea74ce3c29a41f1b461fbdaff4714a0d9a8eb05499746c180548416600190811790915560027f05b8ccbb9d4d8fb16ea74ce3c29a41f1b461fbdaff4714a0d9a8eb05499746c2557f05b8ccbb9d4d8fb16ea74ce3c29a41f1b461fbdaff4714a0d9a8eb05499746c383905560408051608080820183528382526020808301858152838501878152606460608087018281528b80527f05b8ccbb9d4d8fb16ea74ce3c29a41f1b461fbdaff4714a0d9a8eb05499746c480875297517f13ed34aa374912445685a12f77beef991f41d5b97c5683b3ee6f2ffe3e07b6f18054965160ff92831661ffff199889161761010091841682021790915594517f13ed34aa374912445685a12f77beef991f41d5b97c5683b3ee6f2ffe3e07b6f25590517f13ed34aa374912445685a12f77beef991f41d5b97c5683b3ee6f2ffe3e07b6f380548f16918316919091179055885196870189528987528686018a81529887019a8b52908601918252888b529590935292517f40e593106f54f9a1415ad6ec9d910d85fff6202618b23c448fec32730505f29980549651918616969092169590951794841690920293909317905592517f40e593106f54f9a1415ad6ec9d910d85fff6202618b23c448fec32730505f29a55517f40e593106f54f9a1415ad6ec9d910d85fff6202618b23c448fec32730505f29b80549095169216919091179092559060059082906005811115620003e357620003e3620011cc565b815260208101919091526040016000208054909150600190829060ff191682800217905550680d8d726b7177a800008160010181905550680821ab0d44149800008160020181905550600081600301819055506101f4816004018190555060018160050160006101000a81548160ff02191690831515021790555060038160060181905550600081600701819055506040518060800160405280600160ff168152602001600160ff1681526020016103e88152602001606460ff1681525081600801600080815260200190815260200160002060008201518160000160006101000a81548160ff021916908360ff16021790555060208201518160000160016101000a81548160ff021916908360ff1602179055506040820151816001015560608201518160020160006101000a81548160ff021916908360ff1602179055509050506040518060800160405280600160ff168152602001600260ff1681526020016104b08152602001605060ff168152508160080160006001815260200190815260200160002060008201518160000160006101000a81548160ff021916908360ff16021790555060208201518160000160016101000a81548160ff021916908360ff1602179055506040820151816001015560608201518160020160006101000a81548160ff021916908360ff1602179055509050506040518060800160405280600260ff168152602001600160ff1681526020016105dc8152602001601460ff168152508160080160006002815260200190815260200160002060008201518160000160006101000a81548160ff021916908360ff16021790555060208201518160000160016101000a81548160ff021916908360ff1602179055506040820151816001015560608201518160020160006101000a81548160ff021916908360ff16021790555090505060006005600060026005811115620006ac57620006ac620011cc565b6005811115620006c057620006c0620011cc565b815260208101919091526040016000208054909150600290829060ff19166001830217905550681b1ae4d6e2ef50000081600101819055506812f939c99edab8000081600201819055506000816003018190555060fa816004018190555060018160050160006101000a81548160ff02191690831515021790555060048160060181905550600181600701819055506040518060800160405280600160ff168152602001600260ff1681526020016104b08152602001606460ff1681525081600801600080815260200190815260200160002060008201518160000160006101000a81548160ff021916908360ff16021790555060208201518160000160016101000a81548160ff021916908360ff1602179055506040820151816001015560608201518160020160006101000a81548160ff021916908360ff1602179055509050506040518060800160405280600260ff168152602001600160ff1681526020016105dc8152602001606460ff168152508160080160006001815260200190815260200160002060008201518160000160006101000a81548160ff021916908360ff16021790555060208201518160000160016101000a81548160ff021916908360ff1602179055506040820151816001015560608201518160020160006101000a81548160ff021916908360ff1602179055509050506040518060800160405280600260ff168152602001600260ff1681526020016107088152602001603260ff168152508160080160006002815260200190815260200160002060008201518160000160006101000a81548160ff021916908360ff16021790555060208201518160000160016101000a81548160ff021916908360ff1602179055506040820151816001015560608201518160020160006101000a81548160ff021916908360ff1602179055509050506040518060800160405280600360ff168152602001600160ff1681526020016107d08152602001600a60ff168152508160080160006003815260200190815260200160002060008201518160000160006101000a81548160ff021916908360ff16021790555060208201518160000160016101000a81548160ff021916908360ff1602179055506040820151816001015560608201518160020160006101000a81548160ff021916908360ff1602179055509050506040518060400160405280600160ff168152602001606460ff1681525081600901600080815260200190815260200160002060008201518160000160006101000a81548160ff021916908360ff16021790555060208201518160000160016101000a81548160ff021916908360ff1602179055509050506000600560006003600581111562000ab55762000ab5620011cc565b600581111562000ac95762000ac9620011cc565b8152602080820192909252604090810160009081208054600360ff19918216811783556802b5e3af16b18800006001808501919091556002808501869055918401859055611388600480860191909155600580860180548616905560068601839055600786018790558751608081018952838152808a018481526103e8828b019081526064606084019081528a805260088a01909c5299892091518254915160ff9081166101000261ffff1990931691811691909117919091178255985193810193909355975191909201805491909616921691909117909355935091908290815260208101919091526040016000208054909150600490829060ff19166001830217905550680821ab0d4414980000816001018190555060008160020181905550600081600301819055506107d0816004018190555060008160050160006101000a81548160ff02191690831515021790555060028160060181905550600181600701819055506040518060800160405280600160ff168152602001600160ff1681526020016103e88152602001606460ff1681525081600801600080815260200190815260200160002060008201518160000160006101000a81548160ff021916908360ff16021790555060208201518160000160016101000a81548160ff021916908360ff1602179055506040820151816001015560608201518160020160006101000a81548160ff021916908360ff1602179055509050506040518060800160405280600160ff168152602001600260ff1681526020016104b08152602001605060ff168152508160080160006001815260200190815260200160002060008201518160000160006101000a81548160ff021916908360ff16021790555060208201518160000160016101000a81548160ff021916908360ff1602179055506040820151816001015560608201518160020160006101000a81548160ff021916908360ff1602179055509050506040518060400160405280600160ff168152602001606460ff1681525081600901600080815260200190815260200160002060008201518160000160006101000a81548160ff021916908360ff16021790555060208201518160000160016101000a81548160ff021916908360ff16021790555090505060006005600060058081111562000e2c5762000e2c620011cc565b600581111562000e405762000e40620011cc565b815260208101919091526040016000208054909150600590829060ff19166001830217905550681043561a8829300000816001018190555060008160020181905550600081600301819055506103e8816004018190555060008160050160006101000a81548160ff02191690831515021790555060038160060181905550600181600701819055506040518060800160405280600160ff168152602001600260ff1681526020016104b08152602001606460ff1681525081600801600080815260200190815260200160002060008201518160000160006101000a81548160ff021916908360ff16021790555060208201518160000160016101000a81548160ff021916908360ff1602179055506040820151816001015560608201518160020160006101000a81548160ff021916908360ff1602179055509050506040518060800160405280600260ff168152602001600160ff1681526020016105dc8152602001605060ff168152508160080160006001815260200190815260200160002060008201518160000160006101000a81548160ff021916908360ff16021790555060208201518160000160016101000a81548160ff021916908360ff1602179055506040820151816001015560608201518160020160006101000a81548160ff021916908360ff1602179055509050506040518060800160405280600260ff168152602001600260ff1681526020016107088152602001603260ff168152508160080160006002815260200190815260200160002060008201518160000160006101000a81548160ff021916908360ff16021790555060208201518160000160016101000a81548160ff021916908360ff1602179055506040820151816001015560608201518160020160006101000a81548160ff021916908360ff1602179055509050506040518060400160405280600260ff168152602001606460ff1681525081600901600080815260200190815260200160002060008201518160000160006101000a81548160ff021916908360ff16021790555060208201518160000160016101000a81548160ff021916908360ff160217905550905050505050505050565b80516001600160a01b03811681146200117d57600080fd5b919050565b6000806000606084860312156200119857600080fd5b620011a38462001165565b9250620011b36020850162001165565b9150620011c36040850162001165565b90509250925092565b634e487b7160e01b600052602160045260246000fd5b611ee380620011f26000396000f3fe608060405234801561001057600080fd5b50600436106101585760003560e01c80636cddf9f7116100c35780639e252f001161007c5780639e252f0014610391578063cf685392146103a4578063d5b989fc146103b7578063dc2c677514610424578063dc481cd914610444578063f2fde38b1461045757600080fd5b80636cddf9f7146102c7578063715018a6146102fb5780637ad37869146103035780638da5cb5b14610323578063934a6ba1146103345780639b993d641461034757600080fd5b80631ef6b79e116101155780631ef6b79e1461021457806330cad79d1461022757806346edaf891461023a5780634a5254091461024d578063573761981461026057806357f4b9571461027357600080fd5b80630db5de841461015d57806313154f821461018d5780631472caed146101a057806314ee78e0146101b55780631685f5f4146101ee57806317446da014610201575b600080fd5b600254610170906001600160a01b031681565b6040516001600160a01b0390911681526020015b60405180910390f35b600354610170906001600160a01b031681565b6101b36101ae3660046119ee565b61046a565b005b6101e06101c3366004611a48565b600660209081526000928352604080842090915290825290205481565b604051908152602001610184565b6101b36101fc366004611a7b565b610501565b600454610170906001600160a01b031681565b6101b3610222366004611a9d565b610e4a565b6101b3610235366004611ac7565b610f6a565b6101b3610248366004611a9d565b610ff2565b6101b361025b366004611b07565b61103a565b6101b361026e366004611bbd565b61115c565b610286610281366004611a9d565b611254565b6040516101849190600060808201905060ff835116825260ff60208401511660208301526040830151604083015260ff606084015116606083015292915050565b6102da6102d5366004611a9d565b611375565b60408051825160ff9081168252602093840151169281019290925201610184565b6101b361146b565b6101e0610311366004611bd9565b60076020526000908152604090205481565b6000546001600160a01b0316610170565b6101b3610342366004611c02565b61147f565b61035a610355366004611a7b565b611508565b6040805197885260208801969096529486019390935260608501919091521515608084015260a083015260c082015260e001610184565b6101b361039f366004611c39565b611589565b6101b36103b2366004611a9d565b6115ce565b6104106103c5366004611a7b565b60056020819052600091825260409091208054600182015460028301546003840154600485015495850154600686015460079096015460ff9586169794969395929493919092169188565b604051610184989796959493929190611c8a565b610437610432366004611bd9565b611616565b6040516101849190611cd0565b6101b3610452366004611d01565b61169e565b6101b3610465366004611bd9565b611795565b61047261180b565b60035460405163051f868f60e31b81526001600160a01b03868116600483015260ff80871660248401528516604483015260648201849052909116906328fc3478906084016020604051808303816000875af11580156104d6573d6000803e3d6000fd5b505050506040513d601f19601f820116820180604052508101906104fa9190611d9c565b5050505050565b610509611865565b60006005600083600581111561052157610521611c52565b600581111561053257610532611c52565b81526020810191909152604001600020600581015490915060ff166105905760405162461bcd60e51b815260206004820152600f60248201526e5061636b206e6f742061637469766560881b60448201526064015b60405180910390fd5b80600401548160030154106105d75760405162461bcd60e51b815260206004820152600d60248201526c141858dac81cdbdb19081bdd5d609a1b6044820152606401610587565b60018101546002546040516370a0823160e01b81523360048201526001600160a01b03909116906370a0823190602401602060405180830381865afa158015610624573d6000803e3d6000fd5b505050506040513d601f19601f820116820180604052508101906106489190611d9c565b10156106965760405162461bcd60e51b815260206004820152601860248201527f496e73756666696369656e742055464f2062616c616e636500000000000000006044820152606401610587565b6001810154600254604051636eb1769f60e11b81523360048201523060248201526001600160a01b039091169063dd62ed3e90604401602060405180830381865afa1580156106e9573d6000803e3d6000fd5b505050506040513d601f19601f8201168201806040525081019061070d9190611d9c565b10156107545760405162461bcd60e51b8152602060048201526016602482015275496e73756666696369656e7420616c6c6f77616e636560501b6044820152606401610587565b60025460018201546040516323b872dd60e01b815233600482015230602482015260448101919091526001600160a01b03909116906323b872dd906064016020604051808303816000875af11580156107b1573d6000803e3d6000fd5b505050506040513d601f19601f820116820180604052508101906107d59190611db5565b6108175760405162461bcd60e51b8152602060048201526013602482015272155193c81d1c985b9cd9995c8819985a5b1959606a1b6044820152606401610587565b6002546001820154604051630852cd8d60e31b81526001600160a01b03909216916342966c689161084e9160040190815260200190565b600060405180830381600087803b15801561086857600080fd5b505af115801561087c573d6000803e3d6000fd5b5050505060028101541561090757600280549082015460405163a9059cbb60e01b815233600482015260248101919091526001600160a01b039091169063a9059cbb906044016020604051808303816000875af11580156108e1573d6000803e3d6000fd5b505050506040513d601f19601f820116820180604052508101906109059190611db5565b505b6000816006015467ffffffffffffffff81111561092657610926611af1565b60405190808252806020026020018201604052801561094f578160200160208202803683370190505b5090506000805b8360060154811015610a5d576000818152600885016020526040902060028101546109839060ff166118be565b15610a4a576003548154600183015460405163051f868f60e31b815233600482015260ff8084166024830152610100909304909216604483015260648201526000916001600160a01b0316906328fc3478906084016020604051808303816000875af11580156109f7573d6000803e3d6000fd5b505050506040513d601f19601f82011682018060405250810190610a1b9190611d9c565b905080858581518110610a3057610a30611dd2565b602090810291909101015283610a4581611de8565b945050505b5080610a5581611de8565b915050610956565b506000836007015467ffffffffffffffff811115610a7d57610a7d611af1565b604051908082528060200260200182016040528015610aa6578160200160208202803683370190505b5090506000805b8560070154811015610ba157600081815260098701602052604090208054610adc90610100900460ff166118be565b15610b8e57600480548254604051630348ab1560e51b8152339381019390935260ff1660248301526000916001600160a01b039091169063691562a0906044016020604051808303816000875af1158015610b3b573d6000803e3d6000fd5b505050506040513d601f19601f82011682018060405250810190610b5f9190611d9c565b905080858581518110610b7457610b74611dd2565b602090810291909101015283610b8981611de8565b945050505b5080610b9981611de8565b915050610aad565b50600385018054906000610bb483611de8565b909155505033600090815260066020526040812090876005811115610bdb57610bdb611c52565b6005811115610bec57610bec611c52565b81526020019081526020016000206000815480929190610c0b90611de8565b9091555050336000908152600760205260408120805491610c2b83611de8565b9091555050600185015460405133917f7651c066d809fd07e90f2b24fe9f9b6d4679a2c59c152eb5d8cae5203b43cf4891610c67918a91611e0f565b60405180910390a28215610d545760008367ffffffffffffffff811115610c9057610c90611af1565b604051908082528060200260200182016040528015610cb9578160200160208202803683370190505b50905060005b84811015610d1057858181518110610cd957610cd9611dd2565b6020026020010151828281518110610cf357610cf3611dd2565b602090810291909101015280610d0881611de8565b915050610cbf565b50336001600160a01b03167fa005821366f30141700a64895eb2f17331af0f525d38301a11a79f6f39283d1e82604051610d4a9190611e2a565b60405180910390a2505b8015610e395760008167ffffffffffffffff811115610d7557610d75611af1565b604051908082528060200260200182016040528015610d9e578160200160208202803683370190505b50905060005b82811015610df557838181518110610dbe57610dbe611dd2565b6020026020010151828281518110610dd857610dd8611dd2565b602090810291909101015280610ded81611de8565b915050610da4565b50336001600160a01b03167f322d91b28639703201b411d87a7739e784de97fd631bbc7c056392e1af9c9ed682604051610e2f9190611e2a565b60405180910390a2505b5050505050610e4760018055565b50565b610e5261180b565b60056000836005811115610e6857610e68611c52565b6005811115610e7957610e79611c52565b815260200190815260200160002060030154811015610ef05760405162461bcd60e51b815260206004820152602d60248201527f4d617820737570706c792063616e6e6f74206265206c657373207468616e206360448201526c757272656e7420737570706c7960981b6064820152608401610587565b8060056000846005811115610f0757610f07611c52565b6005811115610f1857610f18611c52565b8152602001908152602001600020600401819055507fd3c0a39d36be39f0f61d528282f858e0f75c25ea8607e44e9b4c0d12dcf2e0c48282604051610f5e929190611e0f565b60405180910390a15050565b610f7261180b565b60048054604051630348ab1560e51b81526001600160a01b038581169382019390935260ff8416602482015291169063691562a0906044016020604051808303816000875af1158015610fc9573d6000803e3d6000fd5b505050506040513d601f19601f82011682018060405250810190610fed9190611d9c565b505050565b610ffa61180b565b806005600084600581111561101157611011611c52565b600581111561102257611022611c52565b81526020810191909152604001600020600201555050565b61104261180b565b6005600084600581111561105857611058611c52565b600581111561106957611069611c52565b81526020019081526020016000206006015482106110c05760405162461bcd60e51b8152602060048201526014602482015273092dcecc2d8d2c840e4caeec2e4c840d2dcc8caf60631b6044820152606401610587565b80600560008560058111156110d7576110d7611c52565b60058111156110e8576110e8611c52565b8152602080820192909252604090810160009081209581526008909501825293849020825181549284015160ff9081166101000261ffff1990941691811691909117929092178155938201516001850155606090910151600290930180549390911660ff1993909316929092179091555050565b61116461180b565b6002546001600160a01b03908116908316036111c25760405162461bcd60e51b815260206004820152601860248201527f43616e6e6f74207265736375652055464f20746f6b656e7300000000000000006044820152606401610587565b816001600160a01b031663a9059cbb6111e36000546001600160a01b031690565b6040516001600160e01b031960e084901b1681526001600160a01b039091166004820152602481018490526044016020604051808303816000875af1158015611230573d6000803e3d6000fd5b505050506040513d601f19601f82011682018060405250810190610fed9190611db5565b6040805160808101825260008082526020820181905291810182905260608101919091526005600084600581111561128e5761128e611c52565b600581111561129f5761129f611c52565b81526020019081526020016000206006015482106112ef5760405162461bcd60e51b815260206004820152600d60248201526c092dcecc2d8d2c840d2dcc8caf609b1b6044820152606401610587565b6005600084600581111561130557611305611c52565b600581111561131657611316611c52565b81526020808201929092526040908101600090812094815260089094018252928390208351608081018552815460ff80821683526101009091048116938201939093526001820154948101949094526002015416606083015250919050565b60408051808201909152600080825260208201526005600084600581111561139f5761139f611c52565b60058111156113b0576113b0611c52565b81526020019081526020016000206007015482106114005760405162461bcd60e51b815260206004820152600d60248201526c092dcecc2d8d2c840d2dcc8caf609b1b6044820152606401610587565b6005600084600581111561141657611416611c52565b600581111561142757611427611c52565b815260208082019290925260409081016000908120948152600990940182529283902083518085019094525460ff8082168552610100909104169083015250919050565b61147361180b565b61147d6000611953565b565b61148761180b565b806005600084600581111561149e5761149e611c52565b60058111156114af576114af611c52565b815260200190815260200160002060050160006101000a81548160ff0219169083151502179055507fc42b50169cff890939508b57133c028ff986a585a00d16b5a86a9cffdbe9a9b68282604051610f5e929190611e6e565b600080600080600080600080600560008a600581111561152a5761152a611c52565b600581111561153b5761153b611c52565b81526020810191909152604001600020600181015460028201546003830154600484015460058501546006860154600790960154949f939e50919c509a5060ff169850919650945092505050565b61159161180b565b600080546040516001600160a01b039091169183156108fc02918491818181858888f193505050501580156115ca573d6000803e3d6000fd5b5050565b6115d661180b565b80600560008460058111156115ed576115ed611c52565b60058111156115fe576115fe611c52565b81526020810191909152604001600020600101555050565b61161e6119a3565b506040805160c0810182526001600160a01b03929092166000908152600660209081528282208280528082528383205485526001835280825283832054828601526002835280825283832054858501526003835280825283832054606086015260048352808252838320546080860152600583529052205460a082015290565b6116a661180b565b600560008460058111156116bc576116bc611c52565b60058111156116cd576116cd611c52565b81526020019081526020016000206007015482106117245760405162461bcd60e51b8152602060048201526014602482015273092dcecc2d8d2c840e4caeec2e4c840d2dcc8caf60631b6044820152606401610587565b806005600085600581111561173b5761173b611c52565b600581111561174c5761174c611c52565b8152602080820192909252604090810160009081209581526009909501825290932081518154929094015160ff9081166101000261ffff19909316941693909317179091555050565b61179d61180b565b6001600160a01b0381166118025760405162461bcd60e51b815260206004820152602660248201527f4f776e61626c653a206e6577206f776e657220697320746865207a65726f206160448201526564647265737360d01b6064820152608401610587565b610e4781611953565b6000546001600160a01b0316331461147d5760405162461bcd60e51b815260206004820181905260248201527f4f776e61626c653a2063616c6c6572206973206e6f7420746865206f776e65726044820152606401610587565b6002600154036118b75760405162461bcd60e51b815260206004820152601f60248201527f5265656e7472616e637947756172643a207265656e7472616e742063616c6c006044820152606401610587565b6002600155565b60008160ff166064036118d357506001919050565b8160ff166000036118e657506000919050565b6000606442443360405160200161192293929190928352602083019190915260601b6bffffffffffffffffffffffff1916604082015260540190565b6040516020818303038152906040528051906020012060001c6119459190611e8b565b60ff90931690921092915050565b600080546001600160a01b038381166001600160a01b0319831681178455604051919092169283917f8be0079c531659141344cd1fd0a4f28419497f9722a3daafe3b4186f6b6457e09190a35050565b6040518060c001604052806006906020820280368337509192915050565b80356001600160a01b03811681146119d857600080fd5b919050565b803560ff811681146119d857600080fd5b60008060008060808587031215611a0457600080fd5b611a0d856119c1565b9350611a1b602086016119dd565b9250611a29604086016119dd565b9396929550929360600135925050565b8035600681106119d857600080fd5b60008060408385031215611a5b57600080fd5b611a64836119c1565b9150611a7260208401611a39565b90509250929050565b600060208284031215611a8d57600080fd5b611a9682611a39565b9392505050565b60008060408385031215611ab057600080fd5b611ab983611a39565b946020939093013593505050565b60008060408385031215611ada57600080fd5b611ae3836119c1565b9150611a72602084016119dd565b634e487b7160e01b600052604160045260246000fd5b600080600083850360c0811215611b1d57600080fd5b611b2685611a39565b9350602085013592506080603f1982011215611b4157600080fd5b506040516080810181811067ffffffffffffffff82111715611b7357634e487b7160e01b600052604160045260246000fd5b8060405250611b84604086016119dd565b8152611b92606086016119dd565b602082015260808501356040820152611bad60a086016119dd565b6060820152809150509250925092565b60008060408385031215611bd057600080fd5b611ab9836119c1565b600060208284031215611beb57600080fd5b611a96826119c1565b8015158114610e4757600080fd5b60008060408385031215611c1557600080fd5b611c1e83611a39565b91506020830135611c2e81611bf4565b809150509250929050565b600060208284031215611c4b57600080fd5b5035919050565b634e487b7160e01b600052602160045260246000fd5b60068110611c8657634e487b7160e01b600052602160045260246000fd5b9052565b6101008101611c99828b611c68565b6020820198909852604081019690965260608601949094526080850192909252151560a084015260c083015260e090910152919050565b60c08101818360005b6006811015611cf8578151835260209283019290910190600101611cd9565b50505092915050565b60008060008385036080811215611d1757600080fd5b611d2085611a39565b9350602085013592506040603f1982011215611d3b57600080fd5b506040516040810181811067ffffffffffffffff82111715611d6d57634e487b7160e01b600052604160045260246000fd5b8060405250611d7e604086016119dd565b8152611d8c606086016119dd565b6020820152809150509250925092565b600060208284031215611dae57600080fd5b5051919050565b600060208284031215611dc757600080fd5b8151611a9681611bf4565b634e487b7160e01b600052603260045260246000fd5b600060018201611e0857634e487b7160e01b600052601160045260246000fd5b5060010190565b60408101611e1d8285611c68565b8260208301529392505050565b6020808252825182820181905260009190848201906040850190845b81811015611e6257835183529284019291840191600101611e46565b50909695505050505050565b60408101611e7c8285611c68565b82151560208301529392505050565b600082611ea857634e487b7160e01b600052601260045260246000fd5b50069056fea2646970667358221220c3340005d7833d133c57bd3f80bfc23e96ca381d9b6221f12dfad4506ec4e70764736f6c63430008140033",
  "linkReferences": {},
  "deployedLinkReferences": {}
}