{
  "_format": "hh-sol-artifact-1",
  "contractName": "RewardClaim",
  "sourceName": "contracts/RewardClaim.sol",
  "abi": [
    {
      "inputs": [
        {
          "internalType": "address",
          "name": "_shipNFT",
          "type": "address"
        },
        {
          "internalType": "address",
          "name": "_stationNFT",
          "type": "address"
        },
        {
          "internalType": "address",
          "name": "_ufoToken",
          "type": "address"
        }
      ],
      "stateMutability": "nonpayable",
      "type": "constructor"
    },
    {
      "anonymous": false,
      "inputs": [
        {
          "indexed": true,
          "internalType": "address",
          "name": "previousOwner",
          "type": "address"
        },
        {
          "indexed": true,
          "internalType": "address",
          "name": "newOwner",
          "type": "address"
        }
      ],
      "name": "OwnershipTransferred",
      "type": "event"
    },
    {
      "inputs": [],
      "name": "claimRewards",
      "outputs": [],
      "stateMutability": "nonpayable",
      "type": "function"
    },
    {
      "inputs": [
        {
          "internalType": "address",
          "name": "user",
          "type": "address"
        }
      ],
      "name": "getFleetPower",
      "outputs": [
        {
          "internalType": "uint256",
          "name": "",
          "type": "uint256"
        }
      ],
      "stateMutability": "view",
      "type": "function"
    },
    {
      "inputs": [],
      "name": "getTotalFleetPower",
      "outputs": [
        {
          "internalType": "uint256",
          "name": "",
          "type": "uint256"
        }
      ],
      "stateMutability": "view",
      "type": "function"
    },
    {
      "inputs": [],
      "name": "hourlyEmission",
      "outputs": [
        {
          "internalType": "uint256",
          "name": "",
          "type": "uint256"
        }
      ],
      "stateMutability": "view",
      "type": "function"
    },
    {
      "inputs": [
        {
          "internalType": "address",
          "name": "",
          "type": "address"
        }
      ],
      "name": "lastClaim",
      "outputs": [
        {
          "internalType": "uint256",
          "name": "",
          "type": "uint256"
        }
      ],
      "stateMutability": "view",
      "type": "function"
    },
    {
      "inputs": [],
      "name": "owner",
      "outputs": [
        {
          "internalType": "address",
          "name": "",
          "type": "address"
        }
      ],
      "stateMutability": "view",
      "type": "function"
    },
    {
      "inputs": [],
      "name": "renounceOwnership",
      "outputs": [],
      "stateMutability": "nonpayable",
      "type": "function"
    },
    {
      "inputs": [],
      "name": "shipNFT",
      "outputs": [
        {
          "internalType": "contract ShipNFT",
          "name": "",
          "type": "address"
        }
      ],
      "stateMutability": "view",
      "type": "function"
    },
    {
      "inputs": [],
      "name": "stationNFT",
      "outputs": [
        {
          "internalType": "contract StationNFT",
          "name": "",
          "type": "address"
        }
      ],
      "stateMutability": "view",
      "type": "function"
    },
    {
      "inputs": [
        {
          "internalType": "address",
          "name": "newOwner",
          "type": "address"
        }
      ],
      "name": "transferOwnership",
      "outputs": [],
      "stateMutability": "nonpayable",
      "type": "function"
    },
    {
      "inputs": [],
      "name": "ufoToken",
      "outputs": [
        {
          "internalType": "contract AbstractorsToken",
          "name": "",
          "type": "address"
        }
      ],
      "stateMutability": "view",
      "type": "function"
    }
  ],
  "bytecode": "0x608060405269152d02c7e14af680000060045534801561001e57600080fd5b50604051610bab380380610bab83398101604081905261003d91610100565b61004633610094565b600180546001600160a01b038086166001600160a01b03199283161790925560028054858416908316179055600380549284169290911691909117905561008c33610094565b505050610143565b600080546001600160a01b038381166001600160a01b0319831681178455604051919092169283917f8be0079c531659141344cd1fd0a4f28419497f9722a3daafe3b4186f6b6457e09190a35050565b80516001600160a01b03811681146100fb57600080fd5b919050565b60008060006060848603121561011557600080fd5b61011e846100e4565b925061012c602085016100e4565b915061013a604085016100e4565b90509250925092565b610a59806101526000396000f3fe608060405234801561001057600080fd5b50600436106100a95760003560e01c80635c16e15e116100715780635c16e15e14610125578063715018a614610145578063800b446a1461014d5780638da5cb5b14610160578063bc8dd43314610171578063f2fde38b1461017957600080fd5b80630db5de84146100ae5780630f131f27146100de57806313154f82146100f557806317446da014610108578063372500ab1461011b575b600080fd5b6003546100c1906001600160a01b031681565b6040516001600160a01b0390911681526020015b60405180910390f35b6100e760045481565b6040519081526020016100d5565b6001546100c1906001600160a01b031681565b6002546100c1906001600160a01b031681565b61012361018c565b005b6100e76101333660046107b2565b60056020526000908152604090205481565b610123610294565b6100e761015b3660046107b2565b6102a8565b6000546001600160a01b03166100c1565b6100e761054d565b6101236101873660046107b2565b61067a565b6000610197336102a8565b905060006101a361054d565b9050600081116101eb5760405162461bcd60e51b815260206004820152600e60248201526d273790333632b2ba103837bbb2b960911b60448201526064015b60405180910390fd5b600081836004546101fc91906107ec565b6102069190610809565b60035460405163a9059cbb60e01b8152336004820152602481018390529192506001600160a01b03169063a9059cbb906044016020604051808303816000875af1158015610258573d6000803e3d6000fd5b505050506040513d601f19601f8201168201806040525081019061027c919061082b565b50503360009081526005602052604090204290555050565b61029c6106f3565b6102a6600061074d565b565b6001546040516369f9c2a560e01b81526001600160a01b03838116600483015260009283929116906369f9c2a590602401600060405180830381865afa1580156102f6573d6000803e3d6000fd5b505050506040513d6000823e601f3d908101601f1916820160405261031e9190810190610894565b90506000805b82518110156103db5760015483516001600160a01b039091169063956c5055908590849081106103565761035661093a565b60200260200101516040518263ffffffff1660e01b815260040161037c91815260200190565b602060405180830381865afa158015610399573d6000803e3d6000fd5b505050506040513d601f19601f820116820180604052508101906103bd9190610950565b6103c79083610969565b9150806103d38161097c565b915050610324565b50600254604051630f7b70f160e21b81526001600160a01b0386811660048301526000921690633dedc3c490602401600060405180830381865afa158015610427573d6000803e3d6000fd5b505050506040513d6000823e601f3d908101601f1916820160405261044f9190810190610894565b90506000805b82518110156105195760025483516000916001600160a01b03169063106e054d908690859081106104885761048861093a565b60200260200101516040518263ffffffff1660e01b81526004016104ae91815260200190565b6040805180830381865afa1580156104ca573d6000803e3d6000fd5b505050506040513d601f19601f820116820180604052508101906104ee91906109ab565b9050806020015160ff16836105039190610969565b92505080806105119061097c565b915050610455565b50801561054357606461052c82856107ec565b6105369190610809565b6105409084610969565b92505b5090949350505050565b600080600090506000600160009054906101000a90046001600160a01b03166001600160a01b03166318160ddd6040518163ffffffff1660e01b8152600401602060405180830381865afa1580156105a9573d6000803e3d6000fd5b505050506040513d601f19601f820116820180604052508101906105cd9190610950565b905060015b818111610672576001546040516331a9108f60e11b8152600481018390526000916001600160a01b031690636352211e90602401602060405180830381865afa158015610623573d6000803e3d6000fd5b505050506040513d601f19601f820116820180604052508101906106479190610a06565b9050610652816102a8565b61065c9085610969565b935050808061066a9061097c565b9150506105d2565b509092915050565b6106826106f3565b6001600160a01b0381166106e75760405162461bcd60e51b815260206004820152602660248201527f4f776e61626c653a206e6577206f776e657220697320746865207a65726f206160448201526564647265737360d01b60648201526084016101e2565b6106f08161074d565b50565b6000546001600160a01b031633146102a65760405162461bcd60e51b815260206004820181905260248201527f4f776e61626c653a2063616c6c6572206973206e6f7420746865206f776e657260448201526064016101e2565b600080546001600160a01b038381166001600160a01b0319831681178455604051919092169283917f8be0079c531659141344cd1fd0a4f28419497f9722a3daafe3b4186f6b6457e09190a35050565b6001600160a01b03811681146106f057600080fd5b6000602082840312156107c457600080fd5b81356107cf8161079d565b9392505050565b634e487b7160e01b600052601160045260246000fd5b8082028115828204841417610803576108036107d6565b92915050565b60008261082657634e487b7160e01b600052601260045260246000fd5b500490565b60006020828403121561083d57600080fd5b815180151581146107cf57600080fd5b634e487b7160e01b600052604160045260246000fd5b604051601f8201601f1916810167ffffffffffffffff8111828210171561088c5761088c61084d565b604052919050565b600060208083850312156108a757600080fd5b825167ffffffffffffffff808211156108bf57600080fd5b818501915085601f8301126108d357600080fd5b8151818111156108e5576108e561084d565b8060051b91506108f6848301610863565b818152918301840191848101908884111561091057600080fd5b938501935b8385101561092e57845182529385019390850190610915565b98975050505050505050565b634e487b7160e01b600052603260045260246000fd5b60006020828403121561096257600080fd5b5051919050565b80820180821115610803576108036107d6565b60006001820161098e5761098e6107d6565b5060010190565b805160ff811681146109a657600080fd5b919050565b6000604082840312156109bd57600080fd5b6040516040810181811067ffffffffffffffff821117156109e0576109e061084d565b6040526109ec83610995565b81526109fa60208401610995565b60208201529392505050565b600060208284031215610a1857600080fd5b81516107cf8161079d56fea264697066735822122032fb27c7fc1afe1b398874104721d7565cac1fc0413a7f2b05676fae4af2851864736f6c63430008140033",
  "linkReferences": {},
  "deployedLinkReferences": {}
}