{
  "_format": "hh-sol-artifact-1",
  "contractName": "RewardClaim",
  "sourceName": "contracts/RewardClaim.sol",
  "abi": [
    {
      "inputs": [
        {
          "internalType": "address",
          "name": "_shipNFT",
          "type": "address"
        },
        {
          "internalType": "address",
          "name": "_stationNFT",
          "type": "address"
        },
        {
          "internalType": "address",
          "name": "_ufoToken",
          "type": "address"
        }
      ],
      "stateMutability": "nonpayable",
      "type": "constructor"
    },
    {
      "anonymous": false,
      "inputs": [
        {
          "indexed": false,
          "internalType": "uint256",
          "name": "newRate",
          "type": "uint256"
        }
      ],
      "name": "EmissionRateUpdated",
      "type": "event"
    },
    {
      "anonymous": false,
      "inputs": [
        {
          "indexed": true,
          "internalType": "address",
          "name": "previousOwner",
          "type": "address"
        },
        {
          "indexed": true,
          "internalType": "address",
          "name": "newOwner",
          "type": "address"
        }
      ],
      "name": "OwnershipTransferred",
      "type": "event"
    },
    {
      "anonymous": false,
      "inputs": [
        {
          "indexed": true,
          "internalType": "address",
          "name": "user",
          "type": "address"
        },
        {
          "indexed": false,
          "internalType": "uint256",
          "name": "amount",
          "type": "uint256"
        }
      ],
      "name": "RewardsClaimed",
      "type": "event"
    },
    {
      "inputs": [],
      "name": "baseEmissionRate",
      "outputs": [
        {
          "internalType": "uint256",
          "name": "",
          "type": "uint256"
        }
      ],
      "stateMutability": "view",
      "type": "function"
    },
    {
      "inputs": [
        {
          "internalType": "address",
          "name": "user",
          "type": "address"
        },
        {
          "internalType": "uint256",
          "name": "timeElapsed",
          "type": "uint256"
        }
      ],
      "name": "calculateRewards",
      "outputs": [
        {
          "internalType": "uint256",
          "name": "",
          "type": "uint256"
        }
      ],
      "stateMutability": "view",
      "type": "function"
    },
    {
      "inputs": [],
      "name": "claimRewards",
      "outputs": [],
      "stateMutability": "nonpayable",
      "type": "function"
    },
    {
      "inputs": [
        {
          "internalType": "address",
          "name": "user",
          "type": "address"
        }
      ],
      "name": "getFleetPower",
      "outputs": [
        {
          "internalType": "uint256",
          "name": "",
          "type": "uint256"
        }
      ],
      "stateMutability": "view",
      "type": "function"
    },
    {
      "inputs": [],
      "name": "getTotalFleetPower",
      "outputs": [
        {
          "internalType": "uint256",
          "name": "",
          "type": "uint256"
        }
      ],
      "stateMutability": "view",
      "type": "function"
    },
    {
      "inputs": [
        {
          "internalType": "address",
          "name": "user",
          "type": "address"
        }
      ],
      "name": "getUserMiningStats",
      "outputs": [
        {
          "internalType": "uint256",
          "name": "fleetPower",
          "type": "uint256"
        },
        {
          "internalType": "uint256",
          "name": "pendingRewards",
          "type": "uint256"
        },
        {
          "internalType": "uint256",
          "name": "nextClaimTime",
          "type": "uint256"
        },
        {
          "internalType": "uint256",
          "name": "totalEarned",
          "type": "uint256"
        }
      ],
      "stateMutability": "view",
      "type": "function"
    },
    {
      "inputs": [
        {
          "internalType": "address",
          "name": "",
          "type": "address"
        }
      ],
      "name": "lastClaimTime",
      "outputs": [
        {
          "internalType": "uint256",
          "name": "",
          "type": "uint256"
        }
      ],
      "stateMutability": "view",
      "type": "function"
    },
    {
      "inputs": [],
      "name": "lastEmissionUpdate",
      "outputs": [
        {
          "internalType": "uint256",
          "name": "",
          "type": "uint256"
        }
      ],
      "stateMutability": "view",
      "type": "function"
    },
    {
      "inputs": [],
      "name": "owner",
      "outputs": [
        {
          "internalType": "address",
          "name": "",
          "type": "address"
        }
      ],
      "stateMutability": "view",
      "type": "function"
    },
    {
      "inputs": [],
      "name": "renounceOwnership",
      "outputs": [],
      "stateMutability": "nonpayable",
      "type": "function"
    },
    {
      "inputs": [
        {
          "internalType": "uint256",
          "name": "newRate",
          "type": "uint256"
        }
      ],
      "name": "setBaseEmissionRate",
      "outputs": [],
      "stateMutability": "nonpayable",
      "type": "function"
    },
    {
      "inputs": [],
      "name": "shipNFT",
      "outputs": [
        {
          "internalType": "contract ShipNFT",
          "name": "",
          "type": "address"
        }
      ],
      "stateMutability": "view",
      "type": "function"
    },
    {
      "inputs": [],
      "name": "stationNFT",
      "outputs": [
        {
          "internalType": "contract StationNFT",
          "name": "",
          "type": "address"
        }
      ],
      "stateMutability": "view",
      "type": "function"
    },
    {
      "inputs": [
        {
          "internalType": "address",
          "name": "",
          "type": "address"
        }
      ],
      "name": "totalClaimed",
      "outputs": [
        {
          "internalType": "uint256",
          "name": "",
          "type": "uint256"
        }
      ],
      "stateMutability": "view",
      "type": "function"
    },
    {
      "inputs": [],
      "name": "totalEmitted",
      "outputs": [
        {
          "internalType": "uint256",
          "name": "",
          "type": "uint256"
        }
      ],
      "stateMutability": "view",
      "type": "function"
    },
    {
      "inputs": [
        {
          "internalType": "address",
          "name": "newOwner",
          "type": "address"
        }
      ],
      "name": "transferOwnership",
      "outputs": [],
      "stateMutability": "nonpayable",
      "type": "function"
    },
    {
      "inputs": [],
      "name": "ufoToken",
      "outputs": [
        {
          "internalType": "contract AbstractorsToken",
          "name": "",
          "type": "address"
        }
      ],
      "stateMutability": "view",
      "type": "function"
    }
  ],
  "bytecode": "0x6080604052670de0b6b3a764000060045534801561001c57600080fd5b50604051610edc380380610edc83398101604081905261003b91610102565b61004433610096565b600180546001600160a01b038086166001600160a01b0319928316179092556002805485841690831617905560038054928416929091169190911790554260055561008e33610096565b505050610145565b600080546001600160a01b038381166001600160a01b0319831681178455604051919092169283917f8be0079c531659141344cd1fd0a4f28419497f9722a3daafe3b4186f6b6457e09190a35050565b80516001600160a01b03811681146100fd57600080fd5b919050565b60008060006060848603121561011757600080fd5b610120846100e6565b925061012e602085016100e6565b915061013c604085016100e6565b90509250925092565b610d88806101546000396000f3fe608060405234801561001057600080fd5b506004361061010b5760003560e01c80638da5cb5b116100a2578063c7644f2211610071578063c7644f221461022b578063df0244b114610234578063ef5d9ae81461023d578063f2fde38b1461025d578063f317ca3d1461027057600080fd5b80638da5cb5b146101df578063b77cf9c6146101f0578063bc8dd43314610210578063beb8314c1461021857600080fd5b806367546e1e116100de57806367546e1e14610170578063715018a61461018357806374c7773e1461018b578063800b446a146101be57600080fd5b80630db5de841461011057806313154f821461014057806317446da014610153578063372500ab14610166575b600080fd5b600354610123906001600160a01b031681565b6040516001600160a01b0390911681526020015b60405180910390f35b600154610123906001600160a01b031681565b600254610123906001600160a01b031681565b61016e610279565b005b61016e61017e366004610a9c565b61047f565b61016e6104c2565b61019e610199366004610aca565b6104d6565b604080519485526020850193909352918301526060820152608001610137565b6101d16101cc366004610aca565b610566565b604051908152602001610137565b6000546001600160a01b0316610123565b6101d16101fe366004610aca565b60076020526000908152604090205481565b6101d161080b565b6101d1610226366004610aee565b610938565b6101d160055481565b6101d160065481565b6101d161024b366004610aca565b60086020526000908152604090205481565b61016e61026b366004610aca565b610979565b6101d160045481565b600061028433610566565b9050600081116102d45760405162461bcd60e51b81526020600482015260166024820152754e6f20666c65657420706f77657220746f206d696e6560501b60448201526064015b60405180910390fd5b336000908152600760205260408120546102ee9042610b30565b9050610e108110156103425760405162461bcd60e51b815260206004820152601c60248201527f43616e206f6e6c7920636c61696d206f6e63652070657220686f75720000000060448201526064016102cb565b600061034e3383610938565b9050600081116103965760405162461bcd60e51b81526020600482015260136024820152724e6f207265776172647320746f20636c61696d60681b60448201526064016102cb565b6003546040516340c10f1960e01b8152336004820152602481018390526001600160a01b03909116906340c10f1990604401600060405180830381600087803b1580156103e257600080fd5b505af11580156103f6573d6000803e3d6000fd5b5050336000908152600760209081526040808320429055600890915281208054859450909250610427908490610b43565b9250508190555080600660008282546104409190610b43565b909155505060405181815233907ffc30cddea38e2bf4d6ea7d3f9ed3b6ad7f176419f4963bd81318067a4aee73fe9060200160405180910390a2505050565b6104876109f2565b60048190556040518181527fffcc630bf88a67ba7c8b27440787c31777ae923aee1e9bbd0127feea56da2cd09060200160405180910390a150565b6104ca6109f2565b6104d46000610a4c565b565b6000806000806104e585610566565b6001600160a01b0386166000908152600760205260408120549195509061050c9042610b30565b90506105188682610938565b6001600160a01b03871660009081526007602052604090205490945061054090610e10610b43565b6001600160a01b0390961660009081526008602052604090205494969395949392505050565b6001546040516369f9c2a560e01b81526001600160a01b03838116600483015260009283929116906369f9c2a590602401600060405180830381865afa1580156105b4573d6000803e3d6000fd5b505050506040513d6000823e601f3d908101601f191682016040526105dc9190810190610b9d565b90506000805b82518110156106995760015483516001600160a01b039091169063956c50559085908490811061061457610614610c43565b60200260200101516040518263ffffffff1660e01b815260040161063a91815260200190565b602060405180830381865afa158015610657573d6000803e3d6000fd5b505050506040513d601f19601f8201168201806040525081019061067b9190610c59565b6106859083610b43565b91508061069181610c72565b9150506105e2565b50600254604051630f7b70f160e21b81526001600160a01b0386811660048301526000921690633dedc3c490602401600060405180830381865afa1580156106e5573d6000803e3d6000fd5b505050506040513d6000823e601f3d908101601f1916820160405261070d9190810190610b9d565b90506000805b82518110156107d75760025483516000916001600160a01b03169063106e054d9086908590811061074657610746610c43565b60200260200101516040518263ffffffff1660e01b815260040161076c91815260200190565b6040805180830381865afa158015610788573d6000803e3d6000fd5b505050506040513d601f19601f820116820180604052508101906107ac9190610ca1565b9050806020015160ff16836107c19190610b43565b92505080806107cf90610c72565b915050610713565b5080156108015760646107ea8285610cfc565b6107f49190610d13565b6107fe9084610b43565b92505b5090949350505050565b600080600090506000600160009054906101000a90046001600160a01b03166001600160a01b03166318160ddd6040518163ffffffff1660e01b8152600401602060405180830381865afa158015610867573d6000803e3d6000fd5b505050506040513d601f19601f8201168201806040525081019061088b9190610c59565b905060015b818111610930576001546040516331a9108f60e11b8152600481018390526000916001600160a01b031690636352211e90602401602060405180830381865afa1580156108e1573d6000803e3d6000fd5b505050506040513d601f19601f820116820180604052508101906109059190610d35565b905061091081610566565b61091a9085610b43565b935050808061092890610c72565b915050610890565b509092915050565b60008061094484610566565b90506000610e10846004548461095a9190610cfc565b6109649190610cfc565b61096e9190610d13565b925050505b92915050565b6109816109f2565b6001600160a01b0381166109e65760405162461bcd60e51b815260206004820152602660248201527f4f776e61626c653a206e6577206f776e657220697320746865207a65726f206160448201526564647265737360d01b60648201526084016102cb565b6109ef81610a4c565b50565b6000546001600160a01b031633146104d45760405162461bcd60e51b815260206004820181905260248201527f4f776e61626c653a2063616c6c6572206973206e6f7420746865206f776e657260448201526064016102cb565b600080546001600160a01b038381166001600160a01b0319831681178455604051919092169283917f8be0079c531659141344cd1fd0a4f28419497f9722a3daafe3b4186f6b6457e09190a35050565b600060208284031215610aae57600080fd5b5035919050565b6001600160a01b03811681146109ef57600080fd5b600060208284031215610adc57600080fd5b8135610ae781610ab5565b9392505050565b60008060408385031215610b0157600080fd5b8235610b0c81610ab5565b946020939093013593505050565b634e487b7160e01b600052601160045260246000fd5b8181038181111561097357610973610b1a565b8082018082111561097357610973610b1a565b634e487b7160e01b600052604160045260246000fd5b604051601f8201601f1916810167ffffffffffffffff81118282101715610b9557610b95610b56565b604052919050565b60006020808385031215610bb057600080fd5b825167ffffffffffffffff80821115610bc857600080fd5b818501915085601f830112610bdc57600080fd5b815181811115610bee57610bee610b56565b8060051b9150610bff848301610b6c565b8181529183018401918481019088841115610c1957600080fd5b938501935b83851015610c3757845182529385019390850190610c1e565b98975050505050505050565b634e487b7160e01b600052603260045260246000fd5b600060208284031215610c6b57600080fd5b5051919050565b600060018201610c8457610c84610b1a565b5060010190565b805160ff81168114610c9c57600080fd5b919050565b600060408284031215610cb357600080fd5b6040516040810181811067ffffffffffffffff82111715610cd657610cd6610b56565b604052610ce283610c8b565b8152610cf060208401610c8b565b60208201529392505050565b808202811582820484141761097357610973610b1a565b600082610d3057634e487b7160e01b600052601260045260246000fd5b500490565b600060208284031215610d4757600080fd5b8151610ae781610ab556fea26469706673582212205f0d31bc0587f4da42d875c7cf1697d5fb0009291a806caafcc4df6e52f025c364736f6c63430008140033",
  "linkReferences": {},
  "deployedLinkReferences": {}
}