{
  "_format": "hh-sol-artifact-1",
  "contractName": "ShipNFT",
  "sourceName": "contracts/ShipNFT.sol",
  "abi": [
    {
      "inputs": [],
      "stateMutability": "nonpayable",
      "type": "constructor"
    },
    {
      "anonymous": false,
      "inputs": [
        {
          "indexed": true,
          "internalType": "address",
          "name": "owner",
          "type": "address"
        },
        {
          "indexed": true,
          "internalType": "address",
          "name": "approved",
          "type": "address"
        },
        {
          "indexed": true,
          "internalType": "uint256",
          "name": "tokenId",
          "type": "uint256"
        }
      ],
      "name": "Approval",
      "type": "event"
    },
    {
      "anonymous": false,
      "inputs": [
        {
          "indexed": true,
          "internalType": "address",
          "name": "owner",
          "type": "address"
        },
        {
          "indexed": true,
          "internalType": "address",
          "name": "operator",
          "type": "address"
        },
        {
          "indexed": false,
          "internalType": "bool",
          "name": "approved",
          "type": "bool"
        }
      ],
      "name": "ApprovalForAll",
      "type": "event"
    },
    {
      "anonymous": false,
      "inputs": [
        {
          "indexed": true,
          "internalType": "address",
          "name": "previousOwner",
          "type": "address"
        },
        {
          "indexed": true,
          "internalType": "address",
          "name": "newOwner",
          "type": "address"
        }
      ],
      "name": "OwnershipTransferred",
      "type": "event"
    },
    {
      "anonymous": false,
      "inputs": [
        {
          "indexed": true,
          "internalType": "address",
          "name": "to",
          "type": "address"
        },
        {
          "indexed": true,
          "internalType": "uint256",
          "name": "tokenId",
          "type": "uint256"
        },
        {
          "indexed": false,
          "internalType": "uint8",
          "name": "tier",
          "type": "uint8"
        },
        {
          "indexed": false,
          "internalType": "uint8",
          "name": "level",
          "type": "uint8"
        },
        {
          "indexed": false,
          "internalType": "uint256",
          "name": "basePower",
          "type": "uint256"
        }
      ],
      "name": "ShipMinted",
      "type": "event"
    },
    {
      "anonymous": false,
      "inputs": [
        {
          "indexed": true,
          "internalType": "uint256",
          "name": "tokenId",
          "type": "uint256"
        },
        {
          "indexed": false,
          "internalType": "uint8",
          "name": "newLevel",
          "type": "uint8"
        }
      ],
      "name": "ShipUpgraded",
      "type": "event"
    },
    {
      "anonymous": false,
      "inputs": [
        {
          "indexed": true,
          "internalType": "address",
          "name": "from",
          "type": "address"
        },
        {
          "indexed": true,
          "internalType": "address",
          "name": "to",
          "type": "address"
        },
        {
          "indexed": true,
          "internalType": "uint256",
          "name": "tokenId",
          "type": "uint256"
        }
      ],
      "name": "Transfer",
      "type": "event"
    },
    {
      "inputs": [
        {
          "internalType": "address",
          "name": "to",
          "type": "address"
        },
        {
          "internalType": "uint256",
          "name": "tokenId",
          "type": "uint256"
        }
      ],
      "name": "approve",
      "outputs": [],
      "stateMutability": "nonpayable",
      "type": "function"
    },
    {
      "inputs": [
        {
          "internalType": "address",
          "name": "owner",
          "type": "address"
        }
      ],
      "name": "balanceOf",
      "outputs": [
        {
          "internalType": "uint256",
          "name": "",
          "type": "uint256"
        }
      ],
      "stateMutability": "view",
      "type": "function"
    },
    {
      "inputs": [
        {
          "internalType": "uint256",
          "name": "tokenId",
          "type": "uint256"
        }
      ],
      "name": "fleetPower",
      "outputs": [
        {
          "internalType": "uint256",
          "name": "",
          "type": "uint256"
        }
      ],
      "stateMutability": "view",
      "type": "function"
    },
    {
      "inputs": [
        {
          "internalType": "uint256",
          "name": "tokenId",
          "type": "uint256"
        }
      ],
      "name": "getApproved",
      "outputs": [
        {
          "internalType": "address",
          "name": "",
          "type": "address"
        }
      ],
      "stateMutability": "view",
      "type": "function"
    },
    {
      "inputs": [
        {
          "internalType": "address",
          "name": "owner",
          "type": "address"
        }
      ],
      "name": "getOwnedShips",
      "outputs": [
        {
          "internalType": "uint256[]",
          "name": "",
          "type": "uint256[]"
        }
      ],
      "stateMutability": "view",
      "type": "function"
    },
    {
      "inputs": [
        {
          "internalType": "address",
          "name": "owner",
          "type": "address"
        },
        {
          "internalType": "address",
          "name": "operator",
          "type": "address"
        }
      ],
      "name": "isApprovedForAll",
      "outputs": [
        {
          "internalType": "bool",
          "name": "",
          "type": "bool"
        }
      ],
      "stateMutability": "view",
      "type": "function"
    },
    {
      "inputs": [
        {
          "internalType": "address",
          "name": "to",
          "type": "address"
        },
        {
          "internalType": "uint8",
          "name": "tier",
          "type": "uint8"
        },
        {
          "internalType": "uint8",
          "name": "level",
          "type": "uint8"
        },
        {
          "internalType": "uint256",
          "name": "basePower",
          "type": "uint256"
        }
      ],
      "name": "mint",
      "outputs": [
        {
          "internalType": "uint256",
          "name": "",
          "type": "uint256"
        }
      ],
      "stateMutability": "nonpayable",
      "type": "function"
    },
    {
      "inputs": [],
      "name": "name",
      "outputs": [
        {
          "internalType": "string",
          "name": "",
          "type": "string"
        }
      ],
      "stateMutability": "view",
      "type": "function"
    },
    {
      "inputs": [],
      "name": "owner",
      "outputs": [
        {
          "internalType": "address",
          "name": "",
          "type": "address"
        }
      ],
      "stateMutability": "view",
      "type": "function"
    },
    {
      "inputs": [
        {
          "internalType": "uint256",
          "name": "tokenId",
          "type": "uint256"
        }
      ],
      "name": "ownerOf",
      "outputs": [
        {
          "internalType": "address",
          "name": "",
          "type": "address"
        }
      ],
      "stateMutability": "view",
      "type": "function"
    },
    {
      "inputs": [],
      "name": "renounceOwnership",
      "outputs": [],
      "stateMutability": "nonpayable",
      "type": "function"
    },
    {
      "inputs": [
        {
          "internalType": "address",
          "name": "from",
          "type": "address"
        },
        {
          "internalType": "address",
          "name": "to",
          "type": "address"
        },
        {
          "internalType": "uint256",
          "name": "tokenId",
          "type": "uint256"
        }
      ],
      "name": "safeTransferFrom",
      "outputs": [],
      "stateMutability": "nonpayable",
      "type": "function"
    },
    {
      "inputs": [
        {
          "internalType": "address",
          "name": "from",
          "type": "address"
        },
        {
          "internalType": "address",
          "name": "to",
          "type": "address"
        },
        {
          "internalType": "uint256",
          "name": "tokenId",
          "type": "uint256"
        },
        {
          "internalType": "bytes",
          "name": "data",
          "type": "bytes"
        }
      ],
      "name": "safeTransferFrom",
      "outputs": [],
      "stateMutability": "nonpayable",
      "type": "function"
    },
    {
      "inputs": [
        {
          "internalType": "address",
          "name": "operator",
          "type": "address"
        },
        {
          "internalType": "bool",
          "name": "approved",
          "type": "bool"
        }
      ],
      "name": "setApprovalForAll",
      "outputs": [],
      "stateMutability": "nonpayable",
      "type": "function"
    },
    {
      "inputs": [
        {
          "internalType": "uint256",
          "name": "",
          "type": "uint256"
        }
      ],
      "name": "ships",
      "outputs": [
        {
          "internalType": "uint8",
          "name": "tier",
          "type": "uint8"
        },
        {
          "internalType": "uint8",
          "name": "level",
          "type": "uint8"
        },
        {
          "internalType": "uint256",
          "name": "basePower",
          "type": "uint256"
        }
      ],
      "stateMutability": "view",
      "type": "function"
    },
    {
      "inputs": [
        {
          "internalType": "bytes4",
          "name": "interfaceId",
          "type": "bytes4"
        }
      ],
      "name": "supportsInterface",
      "outputs": [
        {
          "internalType": "bool",
          "name": "",
          "type": "bool"
        }
      ],
      "stateMutability": "view",
      "type": "function"
    },
    {
      "inputs": [],
      "name": "symbol",
      "outputs": [
        {
          "internalType": "string",
          "name": "",
          "type": "string"
        }
      ],
      "stateMutability": "view",
      "type": "function"
    },
    {
      "inputs": [
        {
          "internalType": "uint256",
          "name": "index",
          "type": "uint256"
        }
      ],
      "name": "tokenByIndex",
      "outputs": [
        {
          "internalType": "uint256",
          "name": "",
          "type": "uint256"
        }
      ],
      "stateMutability": "view",
      "type": "function"
    },
    {
      "inputs": [
        {
          "internalType": "address",
          "name": "owner",
          "type": "address"
        },
        {
          "internalType": "uint256",
          "name": "index",
          "type": "uint256"
        }
      ],
      "name": "tokenOfOwnerByIndex",
      "outputs": [
        {
          "internalType": "uint256",
          "name": "",
          "type": "uint256"
        }
      ],
      "stateMutability": "view",
      "type": "function"
    },
    {
      "inputs": [
        {
          "internalType": "uint256",
          "name": "tokenId",
          "type": "uint256"
        }
      ],
      "name": "tokenURI",
      "outputs": [
        {
          "internalType": "string",
          "name": "",
          "type": "string"
        }
      ],
      "stateMutability": "view",
      "type": "function"
    },
    {
      "inputs": [],
      "name": "totalSupply",
      "outputs": [
        {
          "internalType": "uint256",
          "name": "",
          "type": "uint256"
        }
      ],
      "stateMutability": "view",
      "type": "function"
    },
    {
      "inputs": [
        {
          "internalType": "address",
          "name": "from",
          "type": "address"
        },
        {
          "internalType": "address",
          "name": "to",
          "type": "address"
        },
        {
          "internalType": "uint256",
          "name": "tokenId",
          "type": "uint256"
        }
      ],
      "name": "transferFrom",
      "outputs": [],
      "stateMutability": "nonpayable",
      "type": "function"
    },
    {
      "inputs": [
        {
          "internalType": "address",
          "name": "newOwner",
          "type": "address"
        }
      ],
      "name": "transferOwnership",
      "outputs": [],
      "stateMutability": "nonpayable",
      "type": "function"
    },
    {
      "inputs": [
        {
          "internalType": "uint256",
          "name": "tokenId",
          "type": "uint256"
        }
      ],
      "name": "upgrade",
      "outputs": [],
      "stateMutability": "nonpayable",
      "type": "function"
    }
  ],
  "bytecode": "0x60806040523480156200001157600080fd5b506040518060400160405280600a81526020016914dc1858d958dc98599d60b21b815250604051806040016040528060048152602001630534849560e41b815250816000908162000063919062000190565b50600162000072828262000190565b5050506200008f620000896200009560201b60201c565b62000099565b6200025c565b3390565b600a80546001600160a01b038381166001600160a01b0319831681179093556040519116919082907f8be0079c531659141344cd1fd0a4f28419497f9722a3daafe3b4186f6b6457e090600090a35050565b634e487b7160e01b600052604160045260246000fd5b600181811c908216806200011657607f821691505b6020821081036200013757634e487b7160e01b600052602260045260246000fd5b50919050565b601f8211156200018b57600081815260208120601f850160051c81016020861015620001665750805b601f850160051c820191505b81811015620001875782815560010162000172565b5050505b505050565b81516001600160401b03811115620001ac57620001ac620000eb565b620001c481620001bd845462000101565b846200013d565b602080601f831160018114620001fc5760008415620001e35750858301515b600019600386901b1c1916600185901b17855562000187565b600085815260208120601f198616915b828110156200022d578886015182559484019460019091019084016200020c565b50858210156200024c5787850151600019600388901b60f8161c191681555b5050505050600190811b01905550565b611e82806200026c6000396000f3fe608060405234801561001057600080fd5b50600436106101585760003560e01c80636352211e116100c357806395d89b411161007c57806395d89b4114610324578063a22cb4651461032c578063b88d4fde1461033f578063c87b56dd14610352578063e985e9c514610365578063f2fde38b146103a157600080fd5b80636352211e146102b257806369f9c2a5146102c557806370a08231146102e5578063715018a6146102f85780638da5cb5b14610300578063956c50551461031157600080fd5b806328fc34781161011557806328fc3478146101ff5780632f745c591461021257806342842e0e1461022557806345977d03146102385780634d4e8dfa1461024b5780634f6ccce71461029f57600080fd5b806301ffc9a71461015d57806306fdde0314610185578063081812fc1461019a578063095ea7b3146101c557806318160ddd146101da57806323b872dd146101ec575b600080fd5b61017061016b36600461185f565b6103b4565b60405190151581526020015b60405180910390f35b61018d6103c5565b60405161017c91906118cc565b6101ad6101a83660046118df565b610457565b6040516001600160a01b03909116815260200161017c565b6101d86101d3366004611914565b61047e565b005b6008545b60405190815260200161017c565b6101d86101fa36600461193e565b610598565b6101de61020d36600461198b565b6105c9565b6101de610220366004611914565b6106b3565b6101d861023336600461193e565b610749565b6101d86102463660046118df565b610764565b61027f6102593660046118df565b600b602052600090815260409020805460019091015460ff808316926101009004169083565b6040805160ff94851681529390921660208401529082015260600161017c565b6101de6102ad3660046118df565b61085a565b6101ad6102c03660046118df565b6108ed565b6102d86102d33660046119d6565b61094d565b60405161017c91906119f1565b6101de6102f33660046119d6565b6109ef565b6101d8610a75565b600a546001600160a01b03166101ad565b6101de61031f3660046118df565b610a89565b61018d610b09565b6101d861033a366004611a35565b610b18565b6101d861034d366004611a87565b610b27565b61018d6103603660046118df565b610b5f565b610170610373366004611b63565b6001600160a01b03918216600090815260056020908152604080832093909416825291909152205460ff1690565b6101d86103af3660046119d6565b610bd3565b60006103bf82610c4c565b92915050565b6060600080546103d490611b96565b80601f016020809104026020016040519081016040528092919081815260200182805461040090611b96565b801561044d5780601f106104225761010080835404028352916020019161044d565b820191906000526020600020905b81548152906001019060200180831161043057829003601f168201915b5050505050905090565b600061046282610c71565b506000908152600460205260409020546001600160a01b031690565b6000610489826108ed565b9050806001600160a01b0316836001600160a01b0316036104fb5760405162461bcd60e51b815260206004820152602160248201527f4552433732313a20617070726f76616c20746f2063757272656e74206f776e656044820152603960f91b60648201526084015b60405180910390fd5b336001600160a01b038216148061051757506105178133610373565b6105895760405162461bcd60e51b815260206004820152603d60248201527f4552433732313a20617070726f76652063616c6c6572206973206e6f7420746f60448201527f6b656e206f776e6572206f7220617070726f76656420666f7220616c6c00000060648201526084016104f2565b6105938383610cd0565b505050565b6105a23382610d3e565b6105be5760405162461bcd60e51b81526004016104f290611bd0565b610593838383610dbc565b60006105d3610f2d565b60006105de60085490565b6105e9906001611c33565b90506105f58682610f87565b6040805160608101825260ff808816825286811660208084019182528385018881526000878152600b9092529085902093518454925184166101000261ffff19909316931692909217178255516001909101555181906001600160a01b038816907f5bef1d29ef7a334a07243ff91a6ad482229c4b2627bada13c7179d509b85b3ed906106a09089908990899060ff9384168152919092166020820152604081019190915260600190565b60405180910390a390505b949350505050565b60006106be836109ef565b82106107205760405162461bcd60e51b815260206004820152602b60248201527f455243373231456e756d657261626c653a206f776e657220696e646578206f7560448201526a74206f6620626f756e647360a81b60648201526084016104f2565b506001600160a01b03919091166000908152600660209081526040808320938352929052205490565b61059383838360405180602001604052806000815250610b27565b61076c610f2d565b6000818152600b6020526040902054600561010090910460ff16106107c75760405162461bcd60e51b815260206004820152601160248201527013585e081b195d995b081c995858da1959607a1b60448201526064016104f2565b6000818152600b6020526040902080546001919082906107f0908290610100900460ff16611c46565b825460ff91821661010093840a90810290830219909116179092556000848152600b60209081526040918290205491519290910490921681528392507fe9e11a8c421667d864abde7bb7931112bb0a9adc305eaf893997d59e50576e79910160405180910390a250565b600061086560085490565b82106108c85760405162461bcd60e51b815260206004820152602c60248201527f455243373231456e756d657261626c653a20676c6f62616c20696e646578206f60448201526b7574206f6620626f756e647360a01b60648201526084016104f2565b600882815481106108db576108db611c5f565b90600052602060002001549050919050565b6000818152600260205260408120546001600160a01b0316806103bf5760405162461bcd60e51b8152602060048201526018602482015277115490cdcc8c4e881a5b9d985b1a59081d1bdad95b88125160421b60448201526064016104f2565b6060600061095a836109ef565b905060008167ffffffffffffffff81111561097757610977611a71565b6040519080825280602002602001820160405280156109a0578160200160208202803683370190505b50905060005b828110156109e7576109b885826106b3565b8282815181106109ca576109ca611c5f565b6020908102919091010152806109df81611c75565b9150506109a6565b509392505050565b60006001600160a01b038216610a595760405162461bcd60e51b815260206004820152602960248201527f4552433732313a2061646472657373207a65726f206973206e6f7420612076616044820152683634b21037bbb732b960b91b60648201526084016104f2565b506001600160a01b031660009081526003602052604090205490565b610a7d610f2d565b610a876000610fa1565b565b6000818152600b602090815260408083208151606081018352815460ff8082168352610100909104169381018490526001918201549281019290925290918391610ad291611c8e565b610add906019611ca7565b610ae8906064611c46565b60ff1690506064818360400151610aff9190611cca565b6106ab9190611ce1565b6060600180546103d490611b96565b610b23338383610ff3565b5050565b610b313383610d3e565b610b4d5760405162461bcd60e51b81526004016104f290611bd0565b610b59848484846110c1565b50505050565b6060610b6a82610c71565b6000610b8160408051602081019091526000815290565b90506000815111610ba15760405180602001604052806000815250610bcc565b80610bab846110f4565b604051602001610bbc929190611d03565b6040516020818303038152906040525b9392505050565b610bdb610f2d565b6001600160a01b038116610c405760405162461bcd60e51b815260206004820152602660248201527f4f776e61626c653a206e6577206f776e657220697320746865207a65726f206160448201526564647265737360d01b60648201526084016104f2565b610c4981610fa1565b50565b60006001600160e01b0319821663780e9d6360e01b14806103bf57506103bf82611187565b6000818152600260205260409020546001600160a01b0316610c495760405162461bcd60e51b8152602060048201526018602482015277115490cdcc8c4e881a5b9d985b1a59081d1bdad95b88125160421b60448201526064016104f2565b600081815260046020526040902080546001600160a01b0319166001600160a01b0384169081179091558190610d05826108ed565b6001600160a01b03167f8c5be1e5ebec7d5bd14f71427d1e84f3dd0314c0f7b2291e5b200ac8c7c3b92560405160405180910390a45050565b600080610d4a836108ed565b9050806001600160a01b0316846001600160a01b03161480610d9157506001600160a01b0380821660009081526005602090815260408083209388168352929052205460ff165b806106ab5750836001600160a01b0316610daa84610457565b6001600160a01b031614949350505050565b826001600160a01b0316610dcf826108ed565b6001600160a01b031614610df55760405162461bcd60e51b81526004016104f290611d32565b6001600160a01b038216610e575760405162461bcd60e51b8152602060048201526024808201527f4552433732313a207472616e7366657220746f20746865207a65726f206164646044820152637265737360e01b60648201526084016104f2565b610e6483838360016111d7565b826001600160a01b0316610e77826108ed565b6001600160a01b031614610e9d5760405162461bcd60e51b81526004016104f290611d32565b600081815260046020908152604080832080546001600160a01b03199081169091556001600160a01b0387811680865260038552838620805460001901905590871680865283862080546001019055868652600290945282852080549092168417909155905184937fddf252ad1be2c89b69c2b068fc378daa952ba7f163c4a11628f55a4df523b3ef91a4505050565b600a546001600160a01b03163314610a875760405162461bcd60e51b815260206004820181905260248201527f4f776e61626c653a2063616c6c6572206973206e6f7420746865206f776e657260448201526064016104f2565b610b238282604051806020016040528060008152506111e3565b600a80546001600160a01b038381166001600160a01b0319831681179093556040519116919082907f8be0079c531659141344cd1fd0a4f28419497f9722a3daafe3b4186f6b6457e090600090a35050565b816001600160a01b0316836001600160a01b0316036110545760405162461bcd60e51b815260206004820152601960248201527f4552433732313a20617070726f766520746f2063616c6c65720000000000000060448201526064016104f2565b6001600160a01b03838116600081815260056020908152604080832094871680845294825291829020805460ff191686151590811790915591519182527f17307eab39ab6107e8899845ad3d59bd9653f200f220920489ca2b5937696c31910160405180910390a3505050565b6110cc848484610dbc565b6110d884848484611216565b610b595760405162461bcd60e51b81526004016104f290611d77565b6060600061110183611314565b600101905060008167ffffffffffffffff81111561112157611121611a71565b6040519080825280601f01601f19166020018201604052801561114b576020820181803683370190505b5090508181016020015b600019016f181899199a1a9b1b9c1cb0b131b232b360811b600a86061a8153600a850494508461115557509392505050565b60006001600160e01b031982166380ac58cd60e01b14806111b857506001600160e01b03198216635b5e139f60e01b145b806103bf57506301ffc9a760e01b6001600160e01b03198316146103bf565b610b59848484846113ec565b6111ed8383611520565b6111fa6000848484611216565b6105935760405162461bcd60e51b81526004016104f290611d77565b60006001600160a01b0384163b1561130c57604051630a85bd0160e11b81526001600160a01b0385169063150b7a029061125a903390899088908890600401611dc9565b6020604051808303816000875af1925050508015611295575060408051601f3d908101601f1916820190925261129291810190611e06565b60015b6112f2573d8080156112c3576040519150601f19603f3d011682016040523d82523d6000602084013e6112c8565b606091505b5080516000036112ea5760405162461bcd60e51b81526004016104f290611d77565b805181602001fd5b6001600160e01b031916630a85bd0160e11b1490506106ab565b5060016106ab565b60008072184f03e93ff9f4daa797ed6e38ed64bf6a1f0160401b83106113535772184f03e93ff9f4daa797ed6e38ed64bf6a1f0160401b830492506040015b6d04ee2d6d415b85acef8100000000831061137f576d04ee2d6d415b85acef8100000000830492506020015b662386f26fc10000831061139d57662386f26fc10000830492506010015b6305f5e10083106113b5576305f5e100830492506008015b61271083106113c957612710830492506004015b606483106113db576064830492506002015b600a83106103bf5760010192915050565b600181111561145b5760405162461bcd60e51b815260206004820152603560248201527f455243373231456e756d657261626c653a20636f6e7365637574697665207472604482015274185b9cd9995c9cc81b9bdd081cdd5c1c1bdc9d1959605a1b60648201526084016104f2565b816001600160a01b0385166114b7576114b281600880546000838152600960205260408120829055600182018355919091527ff3f7a9fe364faab93b216da50a3214154f22a0a2b415b23a84c8169e8b636ee30155565b6114da565b836001600160a01b0316856001600160a01b0316146114da576114da85826116b9565b6001600160a01b0384166114f6576114f181611756565b611519565b846001600160a01b0316846001600160a01b031614611519576115198482611805565b5050505050565b6001600160a01b0382166115765760405162461bcd60e51b815260206004820181905260248201527f4552433732313a206d696e7420746f20746865207a65726f206164647265737360448201526064016104f2565b6000818152600260205260409020546001600160a01b0316156115db5760405162461bcd60e51b815260206004820152601c60248201527f4552433732313a20746f6b656e20616c7265616479206d696e7465640000000060448201526064016104f2565b6115e96000838360016111d7565b6000818152600260205260409020546001600160a01b03161561164e5760405162461bcd60e51b815260206004820152601c60248201527f4552433732313a20746f6b656e20616c7265616479206d696e7465640000000060448201526064016104f2565b6001600160a01b038216600081815260036020908152604080832080546001019055848352600290915280822080546001600160a01b0319168417905551839291907fddf252ad1be2c89b69c2b068fc378daa952ba7f163c4a11628f55a4df523b3ef908290a45050565b600060016116c6846109ef565b6116d09190611e23565b600083815260076020526040902054909150808214611723576001600160a01b03841660009081526006602090815260408083208584528252808320548484528184208190558352600790915290208190555b5060009182526007602090815260408084208490556001600160a01b039094168352600681528383209183525290812055565b60085460009061176890600190611e23565b6000838152600960205260408120546008805493945090928490811061179057611790611c5f565b9060005260206000200154905080600883815481106117b1576117b1611c5f565b60009182526020808320909101929092558281526009909152604080822084905585825281205560088054806117e9576117e9611e36565b6001900381819060005260206000200160009055905550505050565b6000611810836109ef565b6001600160a01b039093166000908152600660209081526040808320868452825280832085905593825260079052919091209190915550565b6001600160e01b031981168114610c4957600080fd5b60006020828403121561187157600080fd5b8135610bcc81611849565b60005b8381101561189757818101518382015260200161187f565b50506000910152565b600081518084526118b881602086016020860161187c565b601f01601f19169290920160200192915050565b602081526000610bcc60208301846118a0565b6000602082840312156118f157600080fd5b5035919050565b80356001600160a01b038116811461190f57600080fd5b919050565b6000806040838503121561192757600080fd5b611930836118f8565b946020939093013593505050565b60008060006060848603121561195357600080fd5b61195c846118f8565b925061196a602085016118f8565b9150604084013590509250925092565b803560ff8116811461190f57600080fd5b600080600080608085870312156119a157600080fd5b6119aa856118f8565b93506119b86020860161197a565b92506119c66040860161197a565b9396929550929360600135925050565b6000602082840312156119e857600080fd5b610bcc826118f8565b6020808252825182820181905260009190848201906040850190845b81811015611a2957835183529284019291840191600101611a0d565b50909695505050505050565b60008060408385031215611a4857600080fd5b611a51836118f8565b915060208301358015158114611a6657600080fd5b809150509250929050565b634e487b7160e01b600052604160045260246000fd5b60008060008060808587031215611a9d57600080fd5b611aa6856118f8565b9350611ab4602086016118f8565b925060408501359150606085013567ffffffffffffffff80821115611ad857600080fd5b818701915087601f830112611aec57600080fd5b813581811115611afe57611afe611a71565b604051601f8201601f19908116603f01168101908382118183101715611b2657611b26611a71565b816040528281528a6020848701011115611b3f57600080fd5b82602086016020830137600060208483010152809550505050505092959194509250565b60008060408385031215611b7657600080fd5b611b7f836118f8565b9150611b8d602084016118f8565b90509250929050565b600181811c90821680611baa57607f821691505b602082108103611bca57634e487b7160e01b600052602260045260246000fd5b50919050565b6020808252602d908201527f4552433732313a2063616c6c6572206973206e6f7420746f6b656e206f776e6560408201526c1c881bdc88185c1c1c9bdd9959609a1b606082015260800190565b634e487b7160e01b600052601160045260246000fd5b808201808211156103bf576103bf611c1d565b60ff81811683821601908111156103bf576103bf611c1d565b634e487b7160e01b600052603260045260246000fd5b600060018201611c8757611c87611c1d565b5060010190565b60ff82811682821603908111156103bf576103bf611c1d565b60ff8181168382160290811690818114611cc357611cc3611c1d565b5092915050565b80820281158282048414176103bf576103bf611c1d565b600082611cfe57634e487b7160e01b600052601260045260246000fd5b500490565b60008351611d1581846020880161187c565b835190830190611d2981836020880161187c565b01949350505050565b60208082526025908201527f4552433732313a207472616e736665722066726f6d20696e636f72726563742060408201526437bbb732b960d91b606082015260800190565b60208082526032908201527f4552433732313a207472616e7366657220746f206e6f6e20455243373231526560408201527131b2b4bb32b91034b6b83632b6b2b73a32b960711b606082015260800190565b6001600160a01b0385811682528416602082015260408101839052608060608201819052600090611dfc908301846118a0565b9695505050505050565b600060208284031215611e1857600080fd5b8151610bcc81611849565b818103818111156103bf576103bf611c1d565b634e487b7160e01b600052603160045260246000fdfea2646970667358221220124f94c88c7e337fb3abb44500c68c4cf853b9f7891651325f8026fb3d774a8664736f6c63430008140033",
  "linkReferences": {},
  "deployedLinkReferences": {}
}